{
  "_format": "hh-sol-artifact-1",
  "contractName": "MemoraNFTV2",
  "sourceName": "contracts/MemoraV2.sol",
  "abi": [
    {
      "inputs": [
        {
          "internalType": "string",
          "name": "name",
          "type": "string"
        },
        {
          "internalType": "string",
          "name": "symbol",
          "type": "string"
        },
        {
          "internalType": "address",
          "name": "_Judge",
          "type": "address"
        }
      ],
      "stateMutability": "nonpayable",
      "type": "constructor"
    },
    {
      "anonymous": false,
      "inputs": [
        {
          "indexed": true,
          "internalType": "address",
          "name": "owner",
          "type": "address"
        },
        {
          "indexed": true,
          "internalType": "address",
          "name": "approved",
          "type": "address"
        },
        {
          "indexed": true,
          "internalType": "uint256",
          "name": "tokenId",
          "type": "uint256"
        }
      ],
      "name": "Approval",
      "type": "event"
    },
    {
      "anonymous": false,
      "inputs": [
        {
          "indexed": true,
          "internalType": "address",
          "name": "owner",
          "type": "address"
        },
        {
          "indexed": true,
          "internalType": "address",
          "name": "operator",
          "type": "address"
        },
        {
          "indexed": false,
          "internalType": "bool",
          "name": "approved",
          "type": "bool"
        }
      ],
      "name": "ApprovalForAll",
      "type": "event"
    },
    {
      "anonymous": false,
      "inputs": [
        {
          "indexed": true,
          "internalType": "uint256",
          "name": "bufferPeriod",
          "type": "uint256"
        }
      ],
      "name": "BufferChanged",
      "type": "event"
    },
    {
      "anonymous": false,
      "inputs": [
        {
          "indexed": true,
          "internalType": "uint256",
          "name": "tokenId",
          "type": "uint256"
        },
        {
          "indexed": true,
          "internalType": "uint256",
          "name": "amount",
          "type": "uint256"
        }
      ],
      "name": "FundsAdded",
      "type": "event"
    },
    {
      "anonymous": false,
      "inputs": [
        {
          "indexed": true,
          "internalType": "uint256",
          "name": "tokenId",
          "type": "uint256"
        }
      ],
      "name": "HeirSigned",
      "type": "event"
    },
    {
      "anonymous": false,
      "inputs": [
        {
          "indexed": true,
          "internalType": "uint256",
          "name": "tokenId",
          "type": "uint256"
        }
      ],
      "name": "JudgeDeclaredTriggered",
      "type": "event"
    },
    {
      "anonymous": false,
      "inputs": [
        {
          "indexed": true,
          "internalType": "uint256",
          "name": "tokenId",
          "type": "uint256"
        },
        {
          "indexed": true,
          "internalType": "address",
          "name": "heir",
          "type": "address"
        }
      ],
      "name": "NFTInherited",
      "type": "event"
    },
    {
      "anonymous": false,
      "inputs": [
        {
          "indexed": true,
          "internalType": "uint256",
          "name": "tokenId",
          "type": "uint256"
        },
        {
          "indexed": true,
          "internalType": "address",
          "name": "heir",
          "type": "address"
        },
        {
          "indexed": true,
          "internalType": "uint256",
          "name": "amount",
          "type": "uint256"
        }
      ],
      "name": "NFTInheritedAndFundsReleased",
      "type": "event"
    },
    {
      "anonymous": false,
      "inputs": [
        {
          "indexed": true,
          "internalType": "address",
          "name": "previousOwner",
          "type": "address"
        },
        {
          "indexed": true,
          "internalType": "address",
          "name": "newOwner",
          "type": "address"
        }
      ],
      "name": "OwnershipTransferred",
      "type": "event"
    },
    {
      "anonymous": false,
      "inputs": [
        {
          "indexed": true,
          "internalType": "address",
          "name": "from",
          "type": "address"
        },
        {
          "indexed": true,
          "internalType": "address",
          "name": "to",
          "type": "address"
        },
        {
          "indexed": true,
          "internalType": "uint256",
          "name": "tokenId",
          "type": "uint256"
        }
      ],
      "name": "Transfer",
      "type": "event"
    },
    {
      "anonymous": false,
      "inputs": [
        {
          "indexed": true,
          "internalType": "uint256",
          "name": "tokenId",
          "type": "uint256"
        }
      ],
      "name": "TriggerDisabled",
      "type": "event"
    },
    {
      "inputs": [
        {
          "internalType": "uint256",
          "name": "tokenId",
          "type": "uint256"
        }
      ],
      "name": "addFunds",
      "outputs": [],
      "stateMutability": "payable",
      "type": "function"
    },
    {
      "inputs": [
        {
          "internalType": "address",
          "name": "to",
          "type": "address"
        },
        {
          "internalType": "uint256",
          "name": "tokenId",
          "type": "uint256"
        }
      ],
      "name": "approve",
      "outputs": [],
      "stateMutability": "nonpayable",
      "type": "function"
    },
    {
      "inputs": [
        {
          "internalType": "address",
          "name": "owner",
          "type": "address"
        }
      ],
      "name": "balanceOf",
      "outputs": [
        {
          "internalType": "uint256",
          "name": "",
          "type": "uint256"
        }
      ],
      "stateMutability": "view",
      "type": "function"
    },
    {
      "inputs": [
        {
          "internalType": "uint256",
          "name": "_buffer_period",
          "type": "uint256"
        }
      ],
      "name": "changeBuffer",
      "outputs": [],
      "stateMutability": "nonpayable",
      "type": "function"
    },
    {
      "inputs": [
        {
          "internalType": "uint256",
          "name": "tokenId",
          "type": "uint256"
        }
      ],
      "name": "declareTrigger",
      "outputs": [],
      "stateMutability": "nonpayable",
      "type": "function"
    },
    {
      "inputs": [
        {
          "internalType": "uint256",
          "name": "tokenId",
          "type": "uint256"
        }
      ],
      "name": "disableTrigger",
      "outputs": [],
      "stateMutability": "nonpayable",
      "type": "function"
    },
    {
      "inputs": [],
      "name": "getAllMinters",
      "outputs": [
        {
          "components": [
            {
              "internalType": "uint256",
              "name": "tokenId",
              "type": "uint256"
            },
            {
              "internalType": "address",
              "name": "minter",
              "type": "address"
            },
            {
              "internalType": "uint256",
              "name": "fid",
              "type": "uint256"
            }
          ],
          "internalType": "struct MemoraNFTV2.MinterData[]",
          "name": "",
          "type": "tuple[]"
        }
      ],
      "stateMutability": "view",
      "type": "function"
    },
    {
      "inputs": [
        {
          "internalType": "address",
          "name": "heir",
          "type": "address"
        }
      ],
      "name": "getAllNFTsForHeir",
      "outputs": [
        {
          "internalType": "uint256[]",
          "name": "",
          "type": "uint256[]"
        }
      ],
      "stateMutability": "view",
      "type": "function"
    },
    {
      "inputs": [
        {
          "internalType": "uint256",
          "name": "tokenId",
          "type": "uint256"
        }
      ],
      "name": "getApproved",
      "outputs": [
        {
          "internalType": "address",
          "name": "",
          "type": "address"
        }
      ],
      "stateMutability": "view",
      "type": "function"
    },
    {
      "inputs": [
        {
          "internalType": "address",
          "name": "owner",
          "type": "address"
        }
      ],
      "name": "getNFTsMintedByOwner",
      "outputs": [
        {
          "internalType": "uint256[]",
          "name": "",
          "type": "uint256[]"
        }
      ],
      "stateMutability": "view",
      "type": "function"
    },
    {
      "inputs": [
        {
          "internalType": "uint256",
          "name": "tokenId",
          "type": "uint256"
        }
      ],
      "name": "getTokenBalance",
      "outputs": [
        {
          "internalType": "uint256",
          "name": "",
          "type": "uint256"
        }
      ],
      "stateMutability": "view",
      "type": "function"
    },
    {
      "inputs": [
        {
          "internalType": "address",
          "name": "heir",
          "type": "address"
        }
      ],
      "name": "getTriggeredNFTsForHeir",
      "outputs": [
        {
          "internalType": "uint256[]",
          "name": "",
          "type": "uint256[]"
        }
      ],
      "stateMutability": "view",
      "type": "function"
    },
    {
      "inputs": [
        {
          "internalType": "uint256",
          "name": "tokenId",
          "type": "uint256"
        }
      ],
      "name": "heirSign",
      "outputs": [],
      "stateMutability": "nonpayable",
      "type": "function"
    },
    {
      "inputs": [
        {
          "internalType": "address",
          "name": "owner",
          "type": "address"
        },
        {
          "internalType": "address",
          "name": "operator",
          "type": "address"
        }
      ],
      "name": "isApprovedForAll",
      "outputs": [
        {
          "internalType": "bool",
          "name": "",
          "type": "bool"
        }
      ],
      "stateMutability": "view",
      "type": "function"
    },
    {
      "inputs": [
        {
          "internalType": "address",
          "name": "heir",
          "type": "address"
        },
        {
          "internalType": "uint256",
          "name": "choice",
          "type": "uint256"
        },
        {
          "internalType": "string",
          "name": "prompt",
          "type": "string"
        },
        {
          "internalType": "string",
          "name": "tokenURI",
          "type": "string"
        },
        {
          "internalType": "uint256",
          "name": "farcasterID",
          "type": "uint256"
        }
      ],
      "name": "mint",
      "outputs": [
        {
          "internalType": "uint256",
          "name": "",
          "type": "uint256"
        }
      ],
      "stateMutability": "nonpayable",
      "type": "function"
    },
    {
      "inputs": [],
      "name": "name",
      "outputs": [
        {
          "internalType": "string",
          "name": "",
          "type": "string"
        }
      ],
      "stateMutability": "view",
      "type": "function"
    },
    {
      "inputs": [],
      "name": "owner",
      "outputs": [
        {
          "internalType": "address",
          "name": "",
          "type": "address"
        }
      ],
      "stateMutability": "view",
      "type": "function"
    },
    {
      "inputs": [
        {
          "internalType": "uint256",
          "name": "tokenId",
          "type": "uint256"
        }
      ],
      "name": "ownerOf",
      "outputs": [
        {
          "internalType": "address",
          "name": "",
          "type": "address"
        }
      ],
      "stateMutability": "view",
      "type": "function"
    },
    {
      "inputs": [],
      "name": "renounceOwnership",
      "outputs": [],
      "stateMutability": "nonpayable",
      "type": "function"
    },
    {
      "inputs": [
        {
          "internalType": "address",
          "name": "from",
          "type": "address"
        },
        {
          "internalType": "address",
          "name": "to",
          "type": "address"
        },
        {
          "internalType": "uint256",
          "name": "tokenId",
          "type": "uint256"
        }
      ],
      "name": "safeTransferFrom",
      "outputs": [],
      "stateMutability": "nonpayable",
      "type": "function"
    },
    {
      "inputs": [
        {
          "internalType": "address",
          "name": "from",
          "type": "address"
        },
        {
          "internalType": "address",
          "name": "to",
          "type": "address"
        },
        {
          "internalType": "uint256",
          "name": "tokenId",
          "type": "uint256"
        },
        {
          "internalType": "bytes",
          "name": "data",
          "type": "bytes"
        }
      ],
      "name": "safeTransferFrom",
      "outputs": [],
      "stateMutability": "nonpayable",
      "type": "function"
    },
    {
      "inputs": [
        {
          "internalType": "address",
          "name": "operator",
          "type": "address"
        },
        {
          "internalType": "bool",
          "name": "approved",
          "type": "bool"
        }
      ],
      "name": "setApprovalForAll",
      "outputs": [],
      "stateMutability": "nonpayable",
      "type": "function"
    },
    {
      "inputs": [
        {
          "internalType": "bytes4",
          "name": "interfaceId",
          "type": "bytes4"
        }
      ],
      "name": "supportsInterface",
      "outputs": [
        {
          "internalType": "bool",
          "name": "",
          "type": "bool"
        }
      ],
      "stateMutability": "view",
      "type": "function"
    },
    {
      "inputs": [],
      "name": "symbol",
      "outputs": [
        {
          "internalType": "string",
          "name": "",
          "type": "string"
        }
      ],
      "stateMutability": "view",
      "type": "function"
    },
    {
      "inputs": [
        {
          "internalType": "uint256",
          "name": "",
          "type": "uint256"
        }
      ],
      "name": "tokenInfo",
      "outputs": [
        {
          "internalType": "address",
          "name": "judge",
          "type": "address"
        },
        {
          "internalType": "address",
          "name": "heir",
          "type": "address"
        },
        {
          "internalType": "bool",
          "name": "isTriggerDeclared",
          "type": "bool"
        },
        {
          "internalType": "bool",
          "name": "isHeirSigned",
          "type": "bool"
        },
        {
          "internalType": "address",
          "name": "minter",
          "type": "address"
        },
        {
          "internalType": "string",
          "name": "prompt",
          "type": "string"
        },
        {
          "internalType": "enum MemoraNFTV2.AccountAction",
          "name": "actions",
          "type": "uint8"
        },
        {
          "internalType": "uint256",
          "name": "triggerTimestamp",
          "type": "uint256"
        },
        {
          "internalType": "uint256",
          "name": "balance",
          "type": "uint256"
        },
        {
          "internalType": "string",
          "name": "uri",
          "type": "string"
        },
        {
          "internalType": "uint256",
          "name": "farcasterID",
          "type": "uint256"
        }
      ],
      "stateMutability": "view",
      "type": "function"
    },
    {
      "inputs": [
        {
          "internalType": "uint256",
          "name": "tokenId",
          "type": "uint256"
        }
      ],
      "name": "tokenURI",
      "outputs": [
        {
          "internalType": "string",
          "name": "",
          "type": "string"
        }
      ],
      "stateMutability": "view",
      "type": "function"
    },
    {
      "inputs": [
        {
          "internalType": "address",
          "name": "from",
          "type": "address"
        },
        {
          "internalType": "address",
          "name": "to",
          "type": "address"
        },
        {
          "internalType": "uint256",
          "name": "tokenId",
          "type": "uint256"
        }
      ],
      "name": "transferFrom",
      "outputs": [],
      "stateMutability": "nonpayable",
      "type": "function"
    },
    {
      "inputs": [
        {
          "internalType": "address",
          "name": "newOwner",
          "type": "address"
        }
      ],
      "name": "transferOwnership",
      "outputs": [],
      "stateMutability": "nonpayable",
      "type": "function"
    },
    {
      "inputs": [
        {
          "internalType": "uint256",
          "name": "tokenId",
          "type": "uint256"
        }
      ],
      "name": "withdrawFunds",
      "outputs": [],
      "stateMutability": "nonpayable",
      "type": "function"
    }
  ],
  "bytecode": "0x60a060405261012c60095534801561001657600080fd5b506040516161a23803806161a283398181016040528101906100389190610355565b828281600090816100499190610601565b5080600190816100599190610601565b50505061007861006d6100b460201b60201c565b6100bc60201b60201c565b8073ffffffffffffffffffffffffffffffffffffffff1660808173ffffffffffffffffffffffffffffffffffffffff16815250505050506106d3565b600033905090565b6000600760009054906101000a900473ffffffffffffffffffffffffffffffffffffffff16905081600760006101000a81548173ffffffffffffffffffffffffffffffffffffffff021916908373ffffffffffffffffffffffffffffffffffffffff1602179055508173ffffffffffffffffffffffffffffffffffffffff168173ffffffffffffffffffffffffffffffffffffffff167f8be0079c531659141344cd1fd0a4f28419497f9722a3daafe3b4186f6b6457e060405160405180910390a35050565b6000604051905090565b600080fd5b600080fd5b600080fd5b600080fd5b6000601f19601f8301169050919050565b7f4e487b7100000000000000000000000000000000000000000000000000000000600052604160045260246000fd5b6101e9826101a0565b810181811067ffffffffffffffff82111715610208576102076101b1565b5b80604052505050565b600061021b610182565b905061022782826101e0565b919050565b600067ffffffffffffffff821115610247576102466101b1565b5b610250826101a0565b9050602081019050919050565b60005b8381101561027b578082015181840152602081019050610260565b60008484015250505050565b600061029a6102958461022c565b610211565b9050828152602081018484840111156102b6576102b561019b565b5b6102c184828561025d565b509392505050565b600082601f8301126102de576102dd610196565b5b81516102ee848260208601610287565b91505092915050565b600073ffffffffffffffffffffffffffffffffffffffff82169050919050565b6000610322826102f7565b9050919050565b61033281610317565b811461033d57600080fd5b50565b60008151905061034f81610329565b92915050565b60008060006060848603121561036e5761036d61018c565b5b600084015167ffffffffffffffff81111561038c5761038b610191565b5b610398868287016102c9565b935050602084015167ffffffffffffffff8111156103b9576103b8610191565b5b6103c5868287016102c9565b92505060406103d686828701610340565b9150509250925092565b600081519050919050565b7f4e487b7100000000000000000000000000000000000000000000000000000000600052602260045260246000fd5b6000600282049050600182168061043257607f821691505b602082108103610445576104446103eb565b5b50919050565b60008190508160005260206000209050919050565b60006020601f8301049050919050565b600082821b905092915050565b6000600883026104ad7fffffffffffffffffffffffffffffffffffffffffffffffffffffffffffffffff82610470565b6104b78683610470565b95508019841693508086168417925050509392505050565b6000819050919050565b6000819050919050565b60006104fe6104f96104f4846104cf565b6104d9565b6104cf565b9050919050565b6000819050919050565b610518836104e3565b61052c61052482610505565b84845461047d565b825550505050565b600090565b610541610534565b61054c81848461050f565b505050565b5b8181101561057057610565600082610539565b600181019050610552565b5050565b601f8211156105b5576105868161044b565b61058f84610460565b8101602085101561059e578190505b6105b26105aa85610460565b830182610551565b50505b505050565b600082821c905092915050565b60006105d8600019846008026105ba565b1980831691505092915050565b60006105f183836105c7565b9150826002028217905092915050565b61060a826103e0565b67ffffffffffffffff811115610623576106226101b1565b5b61062d825461041a565b610638828285610574565b600060209050601f83116001811461066b5760008415610659578287015190505b61066385826105e5565b8655506106cb565b601f1984166106798661044b565b60005b828110156106a15784890151825560018201915060208501945060208101905061067c565b868310156106be57848901516106ba601f8916826105c7565b8355505b6001600288020188555050505b505050505050565b608051615ab46106ee60003960006114e50152615ab46000f3fe6080604052600436106101c25760003560e01c806395d89b41116100f7578063c1c9a89311610095578063d1d445c911610064578063d1d445c914610697578063e3a55663146106c0578063e985e9c5146106e9578063f2fde38b14610726576101c2565b8063c1c9a89314610599578063c87b56dd146105d6578063cc33c87514610613578063cf073b151461065a576101c2565b8063a22cb465116100d1578063a22cb465146104ee578063af72bd9114610517578063b88d4fde14610554578063be9997051461057d576101c2565b806395d89b411461045b57806397056a6514610486578063a045442c146104c3576101c2565b806342842e0e1161016457806370a082311161013e57806370a082311461039f578063715018a6146103dc5780638da5cb5b146103f35780639105d7481461041e576101c2565b806342842e0e1461031057806355b47b95146103395780636352211e14610362576101c2565b8063095ea7b3116101a0578063095ea7b31461026c578063155dd5ee1461029557806323b872dd146102be5780632e726f02146102e7576101c2565b806301ffc9a7146101c757806306fdde0314610204578063081812fc1461022f575b600080fd5b3480156101d357600080fd5b506101ee60048036038101906101e99190613dfa565b61074f565b6040516101fb9190613e42565b60405180910390f35b34801561021057600080fd5b50610219610831565b6040516102269190613eed565b60405180910390f35b34801561023b57600080fd5b5061025660048036038101906102519190613f45565b6108c3565b6040516102639190613fb3565b60405180910390f35b34801561027857600080fd5b50610293600480360381019061028e9190613ffa565b610909565b005b3480156102a157600080fd5b506102bc60048036038101906102b79190613f45565b610a20565b005b3480156102ca57600080fd5b506102e560048036038101906102e0919061403a565b610bd7565b005b3480156102f357600080fd5b5061030e60048036038101906103099190613f45565b610c37565b005b34801561031c57600080fd5b506103376004803603810190610332919061403a565b610db9565b005b34801561034557600080fd5b50610360600480360381019061035b9190613f45565b610dd9565b005b34801561036e57600080fd5b5061038960048036038101906103849190613f45565b610e18565b6040516103969190613fb3565b60405180910390f35b3480156103ab57600080fd5b506103c660048036038101906103c1919061408d565b610e9e565b6040516103d391906140c9565b60405180910390f35b3480156103e857600080fd5b506103f1610f55565b005b3480156103ff57600080fd5b50610408610f69565b6040516104159190613fb3565b60405180910390f35b34801561042a57600080fd5b5061044560048036038101906104409190613f45565b610f93565b60405161045291906140c9565b60405180910390f35b34801561046757600080fd5b50610470611057565b60405161047d9190613eed565b60405180910390f35b34801561049257600080fd5b506104ad60048036038101906104a8919061408d565b6110e9565b6040516104ba91906141a2565b60405180910390f35b3480156104cf57600080fd5b506104d86113a1565b6040516104e591906142c4565b60405180910390f35b3480156104fa57600080fd5b5061051560048036038101906105109190614312565b61146a565b005b34801561052357600080fd5b5061053e60048036038101906105399190614487565b611480565b60405161054b91906140c9565b60405180910390f35b34801561056057600080fd5b5061057b600480360381019061057691906145db565b611866565b005b61059760048036038101906105929190613f45565b6118c8565b005b3480156105a557600080fd5b506105c060048036038101906105bb919061408d565b6119cb565b6040516105cd91906141a2565b60405180910390f35b3480156105e257600080fd5b506105fd60048036038101906105f89190613f45565b611b9f565b60405161060a9190613eed565b60405180910390f35b34801561061f57600080fd5b5061063a60048036038101906106359190613f45565b611cb1565b6040516106519b9a999897969594939291906146d5565b60405180910390f35b34801561066657600080fd5b50610681600480360381019061067c919061408d565b611ea2565b60405161068e91906141a2565b60405180910390f35b3480156106a357600080fd5b506106be60048036038101906106b99190613f45565b612076565b005b3480156106cc57600080fd5b506106e760048036038101906106e29190613f45565b61222d565b005b3480156106f557600080fd5b50610710600480360381019061070b919061478e565b61294e565b60405161071d9190613e42565b60405180910390f35b34801561073257600080fd5b5061074d6004803603810190610748919061408d565b6129e2565b005b60007f80ac58cd000000000000000000000000000000000000000000000000000000007bffffffffffffffffffffffffffffffffffffffffffffffffffffffff1916827bffffffffffffffffffffffffffffffffffffffffffffffffffffffff1916148061081a57507f5b5e139f000000000000000000000000000000000000000000000000000000007bffffffffffffffffffffffffffffffffffffffffffffffffffffffff1916827bffffffffffffffffffffffffffffffffffffffffffffffffffffffff1916145b8061082a575061082982612a65565b5b9050919050565b606060008054610840906147fd565b80601f016020809104026020016040519081016040528092919081815260200182805461086c906147fd565b80156108b95780601f1061088e576101008083540402835291602001916108b9565b820191906000526020600020905b81548152906001019060200180831161089c57829003601f168201915b5050505050905090565b60006108ce82612acf565b6004600083815260200190815260200160002060009054906101000a900473ffffffffffffffffffffffffffffffffffffffff169050919050565b600061091482610e18565b90508073ffffffffffffffffffffffffffffffffffffffff168373ffffffffffffffffffffffffffffffffffffffff1603610984576040517f08c379a000000000000000000000000000000000000000000000000000000000815260040161097b906148a0565b60405180910390fd5b8073ffffffffffffffffffffffffffffffffffffffff166109a3612b1a565b73ffffffffffffffffffffffffffffffffffffffff1614806109d257506109d1816109cc612b1a565b61294e565b5b610a11576040517f08c379a0000000000000000000000000000000000000000000000000000000008152600401610a0890614932565b60405180910390fd5b610a1b8383612b22565b505050565b3373ffffffffffffffffffffffffffffffffffffffff16610a4082610e18565b73ffffffffffffffffffffffffffffffffffffffff1614610a96576040517f08c379a0000000000000000000000000000000000000000000000000000000008152600401610a8d906149c4565b60405180910390fd5b6000600a60008381526020019081526020016000206006015411610aef576040517f08c379a0000000000000000000000000000000000000000000000000000000008152600401610ae690614a30565b60405180910390fd5b6000600a60008381526020019081526020016000206006015490506000600a60008481526020019081526020016000206006018190555060003373ffffffffffffffffffffffffffffffffffffffff1682604051610b4c90614a81565b60006040518083038185875af1925050503d8060008114610b89576040519150601f19603f3d011682016040523d82523d6000602084013e610b8e565b606091505b5050905080610bd2576040517f08c379a0000000000000000000000000000000000000000000000000000000008152600401610bc990614ae2565b60405180910390fd5b505050565b610be8610be2612b1a565b82612bdb565b610c27576040517f08c379a0000000000000000000000000000000000000000000000000000000008152600401610c1e90614b74565b60405180910390fd5b610c32838383612c70565b505050565b600a600082815260200190815260200160002060000160009054906101000a900473ffffffffffffffffffffffffffffffffffffffff1673ffffffffffffffffffffffffffffffffffffffff163373ffffffffffffffffffffffffffffffffffffffff1614610cdb576040517f08c379a0000000000000000000000000000000000000000000000000000000008152600401610cd290614c06565b60405180910390fd5b600a600082815260200190815260200160002060010160149054906101000a900460ff1615610d3f576040517f08c379a0000000000000000000000000000000000000000000000000000000008152600401610d3690614c72565b60405180910390fd5b6001600a600083815260200190815260200160002060010160146101000a81548160ff02191690831515021790555042600a600083815260200190815260200160002060050181905550807f201090e8dc5d2ffa88ad42c256e5970196d8e57d99c70ba96fd262263402c71360405160405180910390a250565b610dd483838360405180602001604052806000815250611866565b505050565b610de1612f69565b80600981905550807f4586d7d1a9b5cd2bdc5d6ada3fdda18dc659b9defca3e830f19f40a88954c81f60405160405180910390a250565b600080610e2483612fe7565b9050600073ffffffffffffffffffffffffffffffffffffffff168173ffffffffffffffffffffffffffffffffffffffff1603610e95576040517f08c379a0000000000000000000000000000000000000000000000000000000008152600401610e8c90614cde565b60405180910390fd5b80915050919050565b60008073ffffffffffffffffffffffffffffffffffffffff168273ffffffffffffffffffffffffffffffffffffffff1603610f0e576040517f08c379a0000000000000000000000000000000000000000000000000000000008152600401610f0590614d70565b60405180910390fd5b600360008373ffffffffffffffffffffffffffffffffffffffff1673ffffffffffffffffffffffffffffffffffffffff168152602001908152602001600020549050919050565b610f5d612f69565b610f676000613024565b565b6000600760009054906101000a900473ffffffffffffffffffffffffffffffffffffffff16905090565b60008073ffffffffffffffffffffffffffffffffffffffff16600a600084815260200190815260200160002060020160009054906101000a900473ffffffffffffffffffffffffffffffffffffffff1673ffffffffffffffffffffffffffffffffffffffff1603611039576040517f08c379a000000000000000000000000000000000000000000000000000000000815260040161103090614ddc565b60405180910390fd5b600a6000838152602001908152602001600020600601549050919050565b606060018054611066906147fd565b80601f0160208091040260200160405190810160405280929190818152602001828054611092906147fd565b80156110df5780601f106110b4576101008083540402835291602001916110df565b820191906000526020600020905b8154815290600101906020018083116110c257829003601f168201915b5050505050905090565b60606000805b6110f960086130ea565b811015611203578373ffffffffffffffffffffffffffffffffffffffff16600a60006001846111289190614e2b565b815260200190815260200160002060010160009054906101000a900473ffffffffffffffffffffffffffffffffffffffff1673ffffffffffffffffffffffffffffffffffffffff161480156111a95750600a60006001836111899190614e2b565b815260200190815260200160002060010160149054906101000a900460ff165b80156111e25750600a60006001836111c19190614e2b565b815260200190815260200160002060010160159054906101000a900460ff16155b156111f65781806111f290614e5f565b9250505b80806001019150506110ef565b5060008167ffffffffffffffff8111156112205761121f61435c565b5b60405190808252806020026020018201604052801561124e5781602001602082028036833780820191505090505b5090506000805b61125f60086130ea565b811015611395578573ffffffffffffffffffffffffffffffffffffffff16600a600060018461128e9190614e2b565b815260200190815260200160002060010160009054906101000a900473ffffffffffffffffffffffffffffffffffffffff1673ffffffffffffffffffffffffffffffffffffffff1614801561130f5750600a60006001836112ef9190614e2b565b815260200190815260200160002060010160149054906101000a900460ff165b80156113485750600a60006001836113279190614e2b565b815260200190815260200160002060010160159054906101000a900460ff16155b156113885760018161135a9190614e2b565b83838151811061136d5761136c614ea7565b5b602002602001018181525050818061138490614e5f565b9250505b8080600101915050611255565b50819350505050919050565b6060600b805480602002602001604051908101604052809291908181526020016000905b828210156114615783829060005260206000209060030201604051806060016040529081600082015481526020016001820160009054906101000a900473ffffffffffffffffffffffffffffffffffffffff1673ffffffffffffffffffffffffffffffffffffffff1673ffffffffffffffffffffffffffffffffffffffff168152602001600282015481525050815260200190600101906113c5565b50505050905090565b61147c611475612b1a565b83836130f8565b5050565b600061148c6008613264565b600061149860086130ea565b90506114a4338261327a565b6114ae8185613298565b60008087036114c057600090506114d7565b600187036114d157600190506114d6565b600290505b5b6040518061016001604052807f000000000000000000000000000000000000000000000000000000000000000073ffffffffffffffffffffffffffffffffffffffff1681526020018973ffffffffffffffffffffffffffffffffffffffff1681526020016000151581526020016000151581526020013373ffffffffffffffffffffffffffffffffffffffff1681526020018781526020018260028111156115825761158161465e565b5b8152602001600081526020016000815260200186815260200185815250600a600084815260200190815260200160002060008201518160000160006101000a81548173ffffffffffffffffffffffffffffffffffffffff021916908373ffffffffffffffffffffffffffffffffffffffff16021790555060208201518160010160006101000a81548173ffffffffffffffffffffffffffffffffffffffff021916908373ffffffffffffffffffffffffffffffffffffffff16021790555060408201518160010160146101000a81548160ff02191690831515021790555060608201518160010160156101000a81548160ff02191690831515021790555060808201518160020160006101000a81548173ffffffffffffffffffffffffffffffffffffffff021916908373ffffffffffffffffffffffffffffffffffffffff16021790555060a08201518160030190816116dc9190615082565b5060c08201518160040160006101000a81548160ff021916908360028111156117085761170761465e565b5b021790555060e0820151816005015561010082015181600601556101208201518160070190816117389190615082565b506101408201518160080155905050600b60405180606001604052808481526020013373ffffffffffffffffffffffffffffffffffffffff1681526020018681525090806001815401808255809150506001900390600052602060002090600302016000909190919091506000820151816000015560208201518160010160006101000a81548173ffffffffffffffffffffffffffffffffffffffff021916908373ffffffffffffffffffffffffffffffffffffffff1602179055506040820151816002015550506001600c60003373ffffffffffffffffffffffffffffffffffffffff1673ffffffffffffffffffffffffffffffffffffffff16815260200190815260200160002060006101000a81548160ff021916908315150217905550819250505095945050505050565b611877611871612b1a565b83612bdb565b6118b6576040517f08c379a00000000000000000000000000000000000000000000000000000000081526004016118ad90614b74565b60405180910390fd5b6118c284848484613305565b50505050565b600073ffffffffffffffffffffffffffffffffffffffff16600a600083815260200190815260200160002060020160009054906101000a900473ffffffffffffffffffffffffffffffffffffffff1673ffffffffffffffffffffffffffffffffffffffff160361196d576040517f08c379a000000000000000000000000000000000000000000000000000000000815260040161196490614ddc565b60405180910390fd5b34600a600083815260200190815260200160002060060160008282546119939190614e2b565b9250508190555034817ff5e4934928a1e45d88c7a5aa2661fe0a801ca5017922e15122d74f1880155e1a60405160405180910390a350565b60606000805b6119db60086130ea565b811015611a73578373ffffffffffffffffffffffffffffffffffffffff16600a6000600184611a0a9190614e2b565b815260200190815260200160002060010160009054906101000a900473ffffffffffffffffffffffffffffffffffffffff1673ffffffffffffffffffffffffffffffffffffffff1603611a66578180611a6290614e5f565b9250505b80806001019150506119d1565b5060008167ffffffffffffffff811115611a9057611a8f61435c565b5b604051908082528060200260200182016040528015611abe5781602001602082028036833780820191505090505b5090506000805b611acf60086130ea565b811015611b93578573ffffffffffffffffffffffffffffffffffffffff16600a6000600184611afe9190614e2b565b815260200190815260200160002060010160009054906101000a900473ffffffffffffffffffffffffffffffffffffffff1673ffffffffffffffffffffffffffffffffffffffff1603611b8657600181611b589190614e2b565b838381518110611b6b57611b6a614ea7565b5b6020026020010181815250508180611b8290614e5f565b9250505b8080600101915050611ac5565b50819350505050919050565b6060611baa82612acf565b6000600660008481526020019081526020016000208054611bca906147fd565b80601f0160208091040260200160405190810160405280929190818152602001828054611bf6906147fd565b8015611c435780601f10611c1857610100808354040283529160200191611c43565b820191906000526020600020905b815481529060010190602001808311611c2657829003601f168201915b505050505090506000611c54613361565b90506000815103611c69578192505050611cac565b600082511115611c9e578082604051602001611c86929190615190565b60405160208183030381529060405292505050611cac565b611ca784613378565b925050505b919050565b600a6020528060005260406000206000915090508060000160009054906101000a900473ffffffffffffffffffffffffffffffffffffffff16908060010160009054906101000a900473ffffffffffffffffffffffffffffffffffffffff16908060010160149054906101000a900460ff16908060010160159054906101000a900460ff16908060020160009054906101000a900473ffffffffffffffffffffffffffffffffffffffff1690806003018054611d6c906147fd565b80601f0160208091040260200160405190810160405280929190818152602001828054611d98906147fd565b8015611de55780601f10611dba57610100808354040283529160200191611de5565b820191906000526020600020905b815481529060010190602001808311611dc857829003601f168201915b5050505050908060040160009054906101000a900460ff1690806005015490806006015490806007018054611e19906147fd565b80601f0160208091040260200160405190810160405280929190818152602001828054611e45906147fd565b8015611e925780601f10611e6757610100808354040283529160200191611e92565b820191906000526020600020905b815481529060010190602001808311611e7557829003601f168201915b505050505090806008015490508b565b60606000805b611eb260086130ea565b811015611f4a578373ffffffffffffffffffffffffffffffffffffffff16600a6000600184611ee19190614e2b565b815260200190815260200160002060020160009054906101000a900473ffffffffffffffffffffffffffffffffffffffff1673ffffffffffffffffffffffffffffffffffffffff1603611f3d578180611f3990614e5f565b9250505b8080600101915050611ea8565b5060008167ffffffffffffffff811115611f6757611f6661435c565b5b604051908082528060200260200182016040528015611f955781602001602082028036833780820191505090505b5090506000805b611fa660086130ea565b81101561206a578573ffffffffffffffffffffffffffffffffffffffff16600a6000600184611fd59190614e2b565b815260200190815260200160002060020160009054906101000a900473ffffffffffffffffffffffffffffffffffffffff1673ffffffffffffffffffffffffffffffffffffffff160361205d5760018161202f9190614e2b565b83838151811061204257612041614ea7565b5b602002602001018181525050818061205990614e5f565b9250505b8080600101915050611f9c565b50819350505050919050565b3373ffffffffffffffffffffffffffffffffffffffff1661209682610e18565b73ffffffffffffffffffffffffffffffffffffffff16146120ec576040517f08c379a00000000000000000000000000000000000000000000000000000000081526004016120e390615226565b60405180910390fd5b600a600082815260200190815260200160002060010160149054906101000a900460ff1661214f576040517f08c379a0000000000000000000000000000000000000000000000000000000008152600401612146906152b8565b60405180910390fd5b600a600082815260200190815260200160002060010160159054906101000a900460ff16156121b3576040517f08c379a00000000000000000000000000000000000000000000000000000000081526004016121aa90615324565b60405180910390fd5b6000600a600083815260200190815260200160002060010160146101000a81548160ff0219169083151502179055506000600a600083815260200190815260200160002060050181905550807ed70b89dda596603dffa8ae0430ba524d61e3363e95f2b11b675ef6996800df60405160405180910390a250565b600a600082815260200190815260200160002060010160009054906101000a900473ffffffffffffffffffffffffffffffffffffffff1673ffffffffffffffffffffffffffffffffffffffff163373ffffffffffffffffffffffffffffffffffffffff16146122d1576040517f08c379a00000000000000000000000000000000000000000000000000000000081526004016122c890615390565b60405180910390fd5b600a600082815260200190815260200160002060010160149054906101000a900460ff16612334576040517f08c379a000000000000000000000000000000000000000000000000000000000815260040161232b90615422565b60405180910390fd5b600a600082815260200190815260200160002060010160159054906101000a900460ff1615612398576040517f08c379a000000000000000000000000000000000000000000000000000000000815260040161238f90615324565b60405180910390fd5b600954600a6000838152602001908152602001600020600501546123bc9190614e2b565b4210156123fe576040517f08c379a00000000000000000000000000000000000000000000000000000000081526004016123f59061548e565b60405180910390fd5b6001600a600083815260200190815260200160002060010160156101000a81548160ff021916908315150217905550807fd8d0fcc172e0a1da7409aba559a365f9b8632d4391604ea2470f5c078242009160405160405180910390a2600a600082815260200190815260200160002060010160149054906101000a900460ff1680156124aa5750600a600082815260200190815260200160002060010160159054906101000a900460ff165b80156124fd5750600060028111156124c5576124c461465e565b5b600a600083815260200190815260200160002060040160009054906101000a900460ff1660028111156124fb576124fa61465e565b5b145b1561259a576000600a600083815260200190815260200160002060010160009054906101000a900473ffffffffffffffffffffffffffffffffffffffff16905061255061254983610e18565b8284612c70565b8073ffffffffffffffffffffffffffffffffffffffff16827f169c32b1acc7308540327ea8385e056055a70cd175f2f6b5aae9e8fa32a15bec60405160405180910390a35061294b565b600a600082815260200190815260200160002060010160149054906101000a900460ff1680156125ea5750600a600082815260200190815260200160002060010160159054906101000a900460ff165b801561263d5750600160028111156126055761260461465e565b5b600a600083815260200190815260200160002060040160009054906101000a900460ff16600281111561263b5761263a61465e565b5b145b156127185761264b816133e0565b6040518060600160405280600081526020013373ffffffffffffffffffffffffffffffffffffffff168152602001600a600084815260200190815260200160002060080154815250600b82815481106126a7576126a6614ea7565b5b90600052602060002090600302016000820151816000015560208201518160010160006101000a81548173ffffffffffffffffffffffffffffffffffffffff021916908373ffffffffffffffffffffffffffffffffffffffff1602179055506040820151816002015590505061294a565b600a600082815260200190815260200160002060010160149054906101000a900460ff1680156127685750600a600082815260200190815260200160002060010160159054906101000a900460ff165b80156127ba57506002808111156127825761278161465e565b5b600a600083815260200190815260200160002060040160009054906101000a900460ff1660028111156127b8576127b761465e565b5b145b15612949576000600a600083815260200190815260200160002060010160009054906101000a900473ffffffffffffffffffffffffffffffffffffffff16905061280d61280683610e18565b8284612c70565b60008173ffffffffffffffffffffffffffffffffffffffff16600a60008581526020019081526020016000206006015460405161284990614a81565b60006040518083038185875af1925050503d8060008114612886576040519150601f19603f3d011682016040523d82523d6000602084013e61288b565b606091505b50509050806128cf576040517f08c379a00000000000000000000000000000000000000000000000000000000081526004016128c690614ae2565b60405180910390fd5b600a6000848152602001908152602001600020600601548273ffffffffffffffffffffffffffffffffffffffff16847f9caa799cd64141f1c4d5fa73baf3b5c7fae0e688d164e67d097e657c0848088e60405160405180910390a46000600a60008581526020019081526020016000206006018190555050505b5b5b50565b6000600560008473ffffffffffffffffffffffffffffffffffffffff1673ffffffffffffffffffffffffffffffffffffffff16815260200190815260200160002060008373ffffffffffffffffffffffffffffffffffffffff1673ffffffffffffffffffffffffffffffffffffffff16815260200190815260200160002060009054906101000a900460ff16905092915050565b6129ea612f69565b600073ffffffffffffffffffffffffffffffffffffffff168173ffffffffffffffffffffffffffffffffffffffff1603612a59576040517f08c379a0000000000000000000000000000000000000000000000000000000008152600401612a5090615520565b60405180910390fd5b612a6281613024565b50565b60007f01ffc9a7000000000000000000000000000000000000000000000000000000007bffffffffffffffffffffffffffffffffffffffffffffffffffffffff1916827bffffffffffffffffffffffffffffffffffffffffffffffffffffffff1916149050919050565b612ad881613433565b612b17576040517f08c379a0000000000000000000000000000000000000000000000000000000008152600401612b0e90614cde565b60405180910390fd5b50565b600033905090565b816004600083815260200190815260200160002060006101000a81548173ffffffffffffffffffffffffffffffffffffffff021916908373ffffffffffffffffffffffffffffffffffffffff160217905550808273ffffffffffffffffffffffffffffffffffffffff16612b9583610e18565b73ffffffffffffffffffffffffffffffffffffffff167f8c5be1e5ebec7d5bd14f71427d1e84f3dd0314c0f7b2291e5b200ac8c7c3b92560405160405180910390a45050565b600080612be783610e18565b90508073ffffffffffffffffffffffffffffffffffffffff168473ffffffffffffffffffffffffffffffffffffffff161480612c295750612c28818561294e565b5b80612c6757508373ffffffffffffffffffffffffffffffffffffffff16612c4f846108c3565b73ffffffffffffffffffffffffffffffffffffffff16145b91505092915050565b8273ffffffffffffffffffffffffffffffffffffffff16612c9082610e18565b73ffffffffffffffffffffffffffffffffffffffff1614612ce6576040517f08c379a0000000000000000000000000000000000000000000000000000000008152600401612cdd906155b2565b60405180910390fd5b600073ffffffffffffffffffffffffffffffffffffffff168273ffffffffffffffffffffffffffffffffffffffff1603612d55576040517f08c379a0000000000000000000000000000000000000000000000000000000008152600401612d4c90615644565b60405180910390fd5b612d628383836001613474565b8273ffffffffffffffffffffffffffffffffffffffff16612d8282610e18565b73ffffffffffffffffffffffffffffffffffffffff1614612dd8576040517f08c379a0000000000000000000000000000000000000000000000000000000008152600401612dcf906155b2565b60405180910390fd5b6004600082815260200190815260200160002060006101000a81549073ffffffffffffffffffffffffffffffffffffffff02191690556001600360008573ffffffffffffffffffffffffffffffffffffffff1673ffffffffffffffffffffffffffffffffffffffff168152602001908152602001600020600082825403925050819055506001600360008473ffffffffffffffffffffffffffffffffffffffff1673ffffffffffffffffffffffffffffffffffffffff16815260200190815260200160002060008282540192505081905550816002600083815260200190815260200160002060006101000a81548173ffffffffffffffffffffffffffffffffffffffff021916908373ffffffffffffffffffffffffffffffffffffffff160217905550808273ffffffffffffffffffffffffffffffffffffffff168473ffffffffffffffffffffffffffffffffffffffff167fddf252ad1be2c89b69c2b068fc378daa952ba7f163c4a11628f55a4df523b3ef60405160405180910390a4612f64838383600161359a565b505050565b612f71612b1a565b73ffffffffffffffffffffffffffffffffffffffff16612f8f610f69565b73ffffffffffffffffffffffffffffffffffffffff1614612fe5576040517f08c379a0000000000000000000000000000000000000000000000000000000008152600401612fdc906156b0565b60405180910390fd5b565b60006002600083815260200190815260200160002060009054906101000a900473ffffffffffffffffffffffffffffffffffffffff169050919050565b6000600760009054906101000a900473ffffffffffffffffffffffffffffffffffffffff16905081600760006101000a81548173ffffffffffffffffffffffffffffffffffffffff021916908373ffffffffffffffffffffffffffffffffffffffff1602179055508173ffffffffffffffffffffffffffffffffffffffff168173ffffffffffffffffffffffffffffffffffffffff167f8be0079c531659141344cd1fd0a4f28419497f9722a3daafe3b4186f6b6457e060405160405180910390a35050565b600081600001549050919050565b8173ffffffffffffffffffffffffffffffffffffffff168373ffffffffffffffffffffffffffffffffffffffff1603613166576040517f08c379a000000000000000000000000000000000000000000000000000000000815260040161315d9061571c565b60405180910390fd5b80600560008573ffffffffffffffffffffffffffffffffffffffff1673ffffffffffffffffffffffffffffffffffffffff16815260200190815260200160002060008473ffffffffffffffffffffffffffffffffffffffff1673ffffffffffffffffffffffffffffffffffffffff16815260200190815260200160002060006101000a81548160ff0219169083151502179055508173ffffffffffffffffffffffffffffffffffffffff168373ffffffffffffffffffffffffffffffffffffffff167f17307eab39ab6107e8899845ad3d59bd9653f200f220920489ca2b5937696c31836040516132579190613e42565b60405180910390a3505050565b6001816000016000828254019250508190555050565b6132948282604051806020016040528060008152506135a0565b5050565b6132a182613433565b6132e0576040517f08c379a00000000000000000000000000000000000000000000000000000000081526004016132d7906157ae565b60405180910390fd5b806006600084815260200190815260200160002090816133009190615082565b505050565b613310848484612c70565b61331c848484846135fb565b61335b576040517f08c379a000000000000000000000000000000000000000000000000000000000815260040161335290615840565b60405180910390fd5b50505050565b606060405180602001604052806000815250905090565b606061338382612acf565b600061338d613361565b905060008151116133ad57604051806020016040528060008152506133d8565b806133b784613782565b6040516020016133c8929190615190565b6040516020818303038152906040525b915050919050565b6133e981613850565b6000600660008381526020019081526020016000208054613409906147fd565b9050146134305760066000828152602001908152602001600020600061342f9190613d31565b5b50565b60008073ffffffffffffffffffffffffffffffffffffffff1661345583612fe7565b73ffffffffffffffffffffffffffffffffffffffff1614159050919050565b600181111561359457600073ffffffffffffffffffffffffffffffffffffffff168473ffffffffffffffffffffffffffffffffffffffff16146135085780600360008673ffffffffffffffffffffffffffffffffffffffff1673ffffffffffffffffffffffffffffffffffffffff16815260200190815260200160002060008282546135009190615860565b925050819055505b600073ffffffffffffffffffffffffffffffffffffffff168373ffffffffffffffffffffffffffffffffffffffff16146135935780600360008573ffffffffffffffffffffffffffffffffffffffff1673ffffffffffffffffffffffffffffffffffffffff168152602001908152602001600020600082825461358b9190614e2b565b925050819055505b5b50505050565b50505050565b6135aa838361399e565b6135b760008484846135fb565b6135f6576040517f08c379a00000000000000000000000000000000000000000000000000000000081526004016135ed90615840565b60405180910390fd5b505050565b600061361c8473ffffffffffffffffffffffffffffffffffffffff16613bbb565b15613775578373ffffffffffffffffffffffffffffffffffffffff1663150b7a02613645612b1a565b8786866040518563ffffffff1660e01b815260040161366794939291906158e9565b6020604051808303816000875af19250505080156136a357506040513d601f19601f820116820180604052508101906136a0919061594a565b60015b613725573d80600081146136d3576040519150601f19603f3d011682016040523d82523d6000602084013e6136d8565b606091505b50600081510361371d576040517f08c379a000000000000000000000000000000000000000000000000000000000815260040161371490615840565b60405180910390fd5b805181602001fd5b63150b7a0260e01b7bffffffffffffffffffffffffffffffffffffffffffffffffffffffff1916817bffffffffffffffffffffffffffffffffffffffffffffffffffffffff19161491505061377a565b600190505b949350505050565b60606000600161379184613bde565b01905060008167ffffffffffffffff8111156137b0576137af61435c565b5b6040519080825280601f01601f1916602001820160405280156137e25781602001600182028036833780820191505090505b509050600082602001820190505b600115613845578080600190039150507f3031323334353637383961626364656600000000000000000000000000000000600a86061a8153600a858161383957613838615977565b5b049450600085036137f0575b819350505050919050565b600061385b82610e18565b905061386b816000846001613474565b61387482610e18565b90506004600083815260200190815260200160002060006101000a81549073ffffffffffffffffffffffffffffffffffffffff02191690556001600360008373ffffffffffffffffffffffffffffffffffffffff1673ffffffffffffffffffffffffffffffffffffffff168152602001908152602001600020600082825403925050819055506002600083815260200190815260200160002060006101000a81549073ffffffffffffffffffffffffffffffffffffffff021916905581600073ffffffffffffffffffffffffffffffffffffffff168273ffffffffffffffffffffffffffffffffffffffff167fddf252ad1be2c89b69c2b068fc378daa952ba7f163c4a11628f55a4df523b3ef60405160405180910390a461399a81600084600161359a565b5050565b600073ffffffffffffffffffffffffffffffffffffffff168273ffffffffffffffffffffffffffffffffffffffff1603613a0d576040517f08c379a0000000000000000000000000000000000000000000000000000000008152600401613a04906159f2565b60405180910390fd5b613a1681613433565b15613a56576040517f08c379a0000000000000000000000000000000000000000000000000000000008152600401613a4d90615a5e565b60405180910390fd5b613a64600083836001613474565b613a6d81613433565b15613aad576040517f08c379a0000000000000000000000000000000000000000000000000000000008152600401613aa490615a5e565b60405180910390fd5b6001600360008473ffffffffffffffffffffffffffffffffffffffff1673ffffffffffffffffffffffffffffffffffffffff16815260200190815260200160002060008282540192505081905550816002600083815260200190815260200160002060006101000a81548173ffffffffffffffffffffffffffffffffffffffff021916908373ffffffffffffffffffffffffffffffffffffffff160217905550808273ffffffffffffffffffffffffffffffffffffffff16600073ffffffffffffffffffffffffffffffffffffffff167fddf252ad1be2c89b69c2b068fc378daa952ba7f163c4a11628f55a4df523b3ef60405160405180910390a4613bb760008383600161359a565b5050565b6000808273ffffffffffffffffffffffffffffffffffffffff163b119050919050565b600080600090507a184f03e93ff9f4daa797ed6e38ed64bf6a1f0100000000000000008310613c3c577a184f03e93ff9f4daa797ed6e38ed64bf6a1f0100000000000000008381613c3257613c31615977565b5b0492506040810190505b6d04ee2d6d415b85acef81000000008310613c79576d04ee2d6d415b85acef81000000008381613c6f57613c6e615977565b5b0492506020810190505b662386f26fc100008310613ca857662386f26fc100008381613c9e57613c9d615977565b5b0492506010810190505b6305f5e1008310613cd1576305f5e1008381613cc757613cc6615977565b5b0492506008810190505b6127108310613cf6576127108381613cec57613ceb615977565b5b0492506004810190505b60648310613d195760648381613d0f57613d0e615977565b5b0492506002810190505b600a8310613d28576001810190505b80915050919050565b508054613d3d906147fd565b6000825580601f10613d4f5750613d6e565b601f016020900490600052602060002090810190613d6d9190613d71565b5b50565b5b80821115613d8a576000816000905550600101613d72565b5090565b6000604051905090565b600080fd5b600080fd5b60007fffffffff0000000000000000000000000000000000000000000000000000000082169050919050565b613dd781613da2565b8114613de257600080fd5b50565b600081359050613df481613dce565b92915050565b600060208284031215613e1057613e0f613d98565b5b6000613e1e84828501613de5565b91505092915050565b60008115159050919050565b613e3c81613e27565b82525050565b6000602082019050613e576000830184613e33565b92915050565b600081519050919050565b600082825260208201905092915050565b60005b83811015613e97578082015181840152602081019050613e7c565b60008484015250505050565b6000601f19601f8301169050919050565b6000613ebf82613e5d565b613ec98185613e68565b9350613ed9818560208601613e79565b613ee281613ea3565b840191505092915050565b60006020820190508181036000830152613f078184613eb4565b905092915050565b6000819050919050565b613f2281613f0f565b8114613f2d57600080fd5b50565b600081359050613f3f81613f19565b92915050565b600060208284031215613f5b57613f5a613d98565b5b6000613f6984828501613f30565b91505092915050565b600073ffffffffffffffffffffffffffffffffffffffff82169050919050565b6000613f9d82613f72565b9050919050565b613fad81613f92565b82525050565b6000602082019050613fc86000830184613fa4565b92915050565b613fd781613f92565b8114613fe257600080fd5b50565b600081359050613ff481613fce565b92915050565b6000806040838503121561401157614010613d98565b5b600061401f85828601613fe5565b925050602061403085828601613f30565b9150509250929050565b60008060006060848603121561405357614052613d98565b5b600061406186828701613fe5565b935050602061407286828701613fe5565b925050604061408386828701613f30565b9150509250925092565b6000602082840312156140a3576140a2613d98565b5b60006140b184828501613fe5565b91505092915050565b6140c381613f0f565b82525050565b60006020820190506140de60008301846140ba565b92915050565b600081519050919050565b600082825260208201905092915050565b6000819050602082019050919050565b61411981613f0f565b82525050565b600061412b8383614110565b60208301905092915050565b6000602082019050919050565b600061414f826140e4565b61415981856140ef565b935061416483614100565b8060005b8381101561419557815161417c888261411f565b975061418783614137565b925050600181019050614168565b5085935050505092915050565b600060208201905081810360008301526141bc8184614144565b905092915050565b600081519050919050565b600082825260208201905092915050565b6000819050602082019050919050565b6141f981613f92565b82525050565b6060820160008201516142156000850182614110565b50602082015161422860208501826141f0565b50604082015161423b6040850182614110565b50505050565b600061424d83836141ff565b60608301905092915050565b6000602082019050919050565b6000614271826141c4565b61427b81856141cf565b9350614286836141e0565b8060005b838110156142b757815161429e8882614241565b97506142a983614259565b92505060018101905061428a565b5085935050505092915050565b600060208201905081810360008301526142de8184614266565b905092915050565b6142ef81613e27565b81146142fa57600080fd5b50565b60008135905061430c816142e6565b92915050565b6000806040838503121561432957614328613d98565b5b600061433785828601613fe5565b9250506020614348858286016142fd565b9150509250929050565b600080fd5b600080fd5b7f4e487b7100000000000000000000000000000000000000000000000000000000600052604160045260246000fd5b61439482613ea3565b810181811067ffffffffffffffff821117156143b3576143b261435c565b5b80604052505050565b60006143c6613d8e565b90506143d2828261438b565b919050565b600067ffffffffffffffff8211156143f2576143f161435c565b5b6143fb82613ea3565b9050602081019050919050565b82818337600083830152505050565b600061442a614425846143d7565b6143bc565b90508281526020810184848401111561444657614445614357565b5b614451848285614408565b509392505050565b600082601f83011261446e5761446d614352565b5b813561447e848260208601614417565b91505092915050565b600080600080600060a086880312156144a3576144a2613d98565b5b60006144b188828901613fe5565b95505060206144c288828901613f30565b945050604086013567ffffffffffffffff8111156144e3576144e2613d9d565b5b6144ef88828901614459565b935050606086013567ffffffffffffffff8111156145105761450f613d9d565b5b61451c88828901614459565b925050608061452d88828901613f30565b9150509295509295909350565b600067ffffffffffffffff8211156145555761455461435c565b5b61455e82613ea3565b9050602081019050919050565b600061457e6145798461453a565b6143bc565b90508281526020810184848401111561459a57614599614357565b5b6145a5848285614408565b509392505050565b600082601f8301126145c2576145c1614352565b5b81356145d284826020860161456b565b91505092915050565b600080600080608085870312156145f5576145f4613d98565b5b600061460387828801613fe5565b945050602061461487828801613fe5565b935050604061462587828801613f30565b925050606085013567ffffffffffffffff81111561464657614645613d9d565b5b614652878288016145ad565b91505092959194509250565b7f4e487b7100000000000000000000000000000000000000000000000000000000600052602160045260246000fd5b6003811061469e5761469d61465e565b5b50565b60008190506146af8261468d565b919050565b60006146bf826146a1565b9050919050565b6146cf816146b4565b82525050565b6000610160820190506146eb600083018e613fa4565b6146f8602083018d613fa4565b614705604083018c613e33565b614712606083018b613e33565b61471f608083018a613fa4565b81810360a08301526147318189613eb4565b905061474060c08301886146c6565b61474d60e08301876140ba565b61475b6101008301866140ba565b81810361012083015261476e8185613eb4565b905061477e6101408301846140ba565b9c9b505050505050505050505050565b600080604083850312156147a5576147a4613d98565b5b60006147b385828601613fe5565b92505060206147c485828601613fe5565b9150509250929050565b7f4e487b7100000000000000000000000000000000000000000000000000000000600052602260045260246000fd5b6000600282049050600182168061481557607f821691505b602082108103614828576148276147ce565b5b50919050565b7f4552433732313a20617070726f76616c20746f2063757272656e74206f776e6560008201527f7200000000000000000000000000000000000000000000000000000000000000602082015250565b600061488a602183613e68565b91506148958261482e565b604082019050919050565b600060208201905081810360008301526148b98161487d565b9050919050565b7f4552433732313a20617070726f76652063616c6c6572206973206e6f7420746f60008201527f6b656e206f776e6572206f7220617070726f76656420666f7220616c6c000000602082015250565b600061491c603d83613e68565b9150614927826148c0565b604082019050919050565b6000602082019050818103600083015261494b8161490f565b9050919050565b7f4f6e6c792074686520746f6b656e206f776e65722063616e207769746864726160008201527f7700000000000000000000000000000000000000000000000000000000000000602082015250565b60006149ae602183613e68565b91506149b982614952565b604082019050919050565b600060208201905081810360008301526149dd816149a1565b9050919050565b7f4e6f2066756e647320746f207769746864726177000000000000000000000000600082015250565b6000614a1a601483613e68565b9150614a25826149e4565b602082019050919050565b60006020820190508181036000830152614a4981614a0d565b9050919050565b600081905092915050565b50565b6000614a6b600083614a50565b9150614a7682614a5b565b600082019050919050565b6000614a8c82614a5e565b9150819050919050565b7f5472616e73666572206661696c65640000000000000000000000000000000000600082015250565b6000614acc600f83613e68565b9150614ad782614a96565b602082019050919050565b60006020820190508181036000830152614afb81614abf565b9050919050565b7f4552433732313a2063616c6c6572206973206e6f7420746f6b656e206f776e6560008201527f72206f7220617070726f76656400000000000000000000000000000000000000602082015250565b6000614b5e602d83613e68565b9150614b6982614b02565b604082019050919050565b60006020820190508181036000830152614b8d81614b51565b9050919050565b7f4f6e6c7920746865206a756467652063616e206465636c61726520747269676760008201527f6572000000000000000000000000000000000000000000000000000000000000602082015250565b6000614bf0602283613e68565b9150614bfb82614b94565b604082019050919050565b60006020820190508181036000830152614c1f81614be3565b9050919050565b7f416c7265616479206465636c6172656420747269676765726564000000000000600082015250565b6000614c5c601a83613e68565b9150614c6782614c26565b602082019050919050565b60006020820190508181036000830152614c8b81614c4f565b9050919050565b7f4552433732313a20696e76616c696420746f6b656e2049440000000000000000600082015250565b6000614cc8601883613e68565b9150614cd382614c92565b602082019050919050565b60006020820190508181036000830152614cf781614cbb565b9050919050565b7f4552433732313a2061646472657373207a65726f206973206e6f74206120766160008201527f6c6964206f776e65720000000000000000000000000000000000000000000000602082015250565b6000614d5a602983613e68565b9150614d6582614cfe565b604082019050919050565b60006020820190508181036000830152614d8981614d4d565b9050919050565b7f546f6b656e20494420646f6573206e6f74206578697374000000000000000000600082015250565b6000614dc6601783613e68565b9150614dd182614d90565b602082019050919050565b60006020820190508181036000830152614df581614db9565b9050919050565b7f4e487b7100000000000000000000000000000000000000000000000000000000600052601160045260246000fd5b6000614e3682613f0f565b9150614e4183613f0f565b9250828201905080821115614e5957614e58614dfc565b5b92915050565b6000614e6a82613f0f565b91507fffffffffffffffffffffffffffffffffffffffffffffffffffffffffffffffff8203614e9c57614e9b614dfc565b5b600182019050919050565b7f4e487b7100000000000000000000000000000000000000000000000000000000600052603260045260246000fd5b60008190508160005260206000209050919050565b60006020601f8301049050919050565b600082821b905092915050565b600060088302614f387fffffffffffffffffffffffffffffffffffffffffffffffffffffffffffffffff82614efb565b614f428683614efb565b95508019841693508086168417925050509392505050565b6000819050919050565b6000614f7f614f7a614f7584613f0f565b614f5a565b613f0f565b9050919050565b6000819050919050565b614f9983614f64565b614fad614fa582614f86565b848454614f08565b825550505050565b600090565b614fc2614fb5565b614fcd818484614f90565b505050565b5b81811015614ff157614fe6600082614fba565b600181019050614fd3565b5050565b601f8211156150365761500781614ed6565b61501084614eeb565b8101602085101561501f578190505b61503361502b85614eeb565b830182614fd2565b50505b505050565b600082821c905092915050565b60006150596000198460080261503b565b1980831691505092915050565b60006150728383615048565b9150826002028217905092915050565b61508b82613e5d565b67ffffffffffffffff8111156150a4576150a361435c565b5b6150ae82546147fd565b6150b9828285614ff5565b600060209050601f8311600181146150ec57600084156150da578287015190505b6150e48582615066565b86555061514c565b601f1984166150fa86614ed6565b60005b82811015615122578489015182556001820191506020850194506020810190506150fd565b8683101561513f578489015161513b601f891682615048565b8355505b6001600288020188555050505b505050505050565b600081905092915050565b600061516a82613e5d565b6151748185615154565b9350615184818560208601613e79565b80840191505092915050565b600061519c828561515f565b91506151a8828461515f565b91508190509392505050565b7f4f6e6c792074686520746f6b656e206f776e65722063616e2064697361626c6560008201527f2074686520747269676765720000000000000000000000000000000000000000602082015250565b6000615210602c83613e68565b915061521b826151b4565b604082019050919050565b6000602082019050818103600083015261523f81615203565b9050919050565b7f5472696767657220686173206e6f74206265656e206465636c6172656420796560008201527f7400000000000000000000000000000000000000000000000000000000000000602082015250565b60006152a2602183613e68565b91506152ad82615246565b604082019050919050565b600060208201905081810360008301526152d181615295565b9050919050565b7f486569722068617320616c7265616479207369676e6564000000000000000000600082015250565b600061530e601783613e68565b9150615319826152d8565b602082019050919050565b6000602082019050818103600083015261533d81615301565b9050919050565b7f4f6e6c792074686520686569722063616e207369676e00000000000000000000600082015250565b600061537a601683613e68565b915061538582615344565b602082019050919050565b600060208201905081810360008301526153a98161536d565b9050919050565b7f4a75646765206861736e2774206465636c61726564207472696767657265642060008201527f7965740000000000000000000000000000000000000000000000000000000000602082015250565b600061540c602383613e68565b9150615417826153b0565b604082019050919050565b6000602082019050818103600083015261543b816153ff565b9050919050565b7f42756666657220706572696f6420686173206e6f742070617373656420796574600082015250565b6000615478602083613e68565b915061548382615442565b602082019050919050565b600060208201905081810360008301526154a78161546b565b9050919050565b7f4f776e61626c653a206e6577206f776e657220697320746865207a65726f206160008201527f6464726573730000000000000000000000000000000000000000000000000000602082015250565b600061550a602683613e68565b9150615515826154ae565b604082019050919050565b60006020820190508181036000830152615539816154fd565b9050919050565b7f4552433732313a207472616e736665722066726f6d20696e636f72726563742060008201527f6f776e6572000000000000000000000000000000000000000000000000000000602082015250565b600061559c602583613e68565b91506155a782615540565b604082019050919050565b600060208201905081810360008301526155cb8161558f565b9050919050565b7f4552433732313a207472616e7366657220746f20746865207a65726f2061646460008201527f7265737300000000000000000000000000000000000000000000000000000000602082015250565b600061562e602483613e68565b9150615639826155d2565b604082019050919050565b6000602082019050818103600083015261565d81615621565b9050919050565b7f4f776e61626c653a2063616c6c6572206973206e6f7420746865206f776e6572600082015250565b600061569a602083613e68565b91506156a582615664565b602082019050919050565b600060208201905081810360008301526156c98161568d565b9050919050565b7f4552433732313a20617070726f766520746f2063616c6c657200000000000000600082015250565b6000615706601983613e68565b9150615711826156d0565b602082019050919050565b60006020820190508181036000830152615735816156f9565b9050919050565b7f45524337323155524953746f726167653a2055524920736574206f66206e6f6e60008201527f6578697374656e7420746f6b656e000000000000000000000000000000000000602082015250565b6000615798602e83613e68565b91506157a38261573c565b604082019050919050565b600060208201905081810360008301526157c78161578b565b9050919050565b7f4552433732313a207472616e7366657220746f206e6f6e20455243373231526560008201527f63656976657220696d706c656d656e7465720000000000000000000000000000602082015250565b600061582a603283613e68565b9150615835826157ce565b604082019050919050565b600060208201905081810360008301526158598161581d565b9050919050565b600061586b82613f0f565b915061587683613f0f565b925082820390508181111561588e5761588d614dfc565b5b92915050565b600081519050919050565b600082825260208201905092915050565b60006158bb82615894565b6158c5818561589f565b93506158d5818560208601613e79565b6158de81613ea3565b840191505092915050565b60006080820190506158fe6000830187613fa4565b61590b6020830186613fa4565b61591860408301856140ba565b818103606083015261592a81846158b0565b905095945050505050565b60008151905061594481613dce565b92915050565b6000602082840312156159605761595f613d98565b5b600061596e84828501615935565b91505092915050565b7f4e487b7100000000000000000000000000000000000000000000000000000000600052601260045260246000fd5b7f4552433732313a206d696e7420746f20746865207a65726f2061646472657373600082015250565b60006159dc602083613e68565b91506159e7826159a6565b602082019050919050565b60006020820190508181036000830152615a0b816159cf565b9050919050565b7f4552433732313a20746f6b656e20616c7265616479206d696e74656400000000600082015250565b6000615a48601c83613e68565b9150615a5382615a12565b602082019050919050565b60006020820190508181036000830152615a7781615a3b565b905091905056fea26469706673582212205869ffab156b8fc5e46427d49b0fb18b7e82449ae1074897a4580f3801260b3764736f6c634300081b0033",
  "linkReferences": {},
  "deployedLinkReferences": {}
}