{
  "_format": "hh-sol-artifact-1",
  "contractName": "MemoraNFTV2",
  "sourceName": "contracts/MemoraV2.sol",
  "abi": [
    {
      "inputs": [
        {
          "internalType": "string",
          "name": "name",
          "type": "string"
        },
        {
          "internalType": "string",
          "name": "symbol",
          "type": "string"
        },
        {
          "internalType": "address",
          "name": "_Judge",
          "type": "address"
        }
      ],
      "stateMutability": "nonpayable",
      "type": "constructor"
    },
    {
      "anonymous": false,
      "inputs": [
        {
          "indexed": true,
          "internalType": "address",
          "name": "owner",
          "type": "address"
        },
        {
          "indexed": true,
          "internalType": "address",
          "name": "approved",
          "type": "address"
        },
        {
          "indexed": true,
          "internalType": "uint256",
          "name": "tokenId",
          "type": "uint256"
        }
      ],
      "name": "Approval",
      "type": "event"
    },
    {
      "anonymous": false,
      "inputs": [
        {
          "indexed": true,
          "internalType": "address",
          "name": "owner",
          "type": "address"
        },
        {
          "indexed": true,
          "internalType": "address",
          "name": "operator",
          "type": "address"
        },
        {
          "indexed": false,
          "internalType": "bool",
          "name": "approved",
          "type": "bool"
        }
      ],
      "name": "ApprovalForAll",
      "type": "event"
    },
    {
      "anonymous": false,
      "inputs": [
        {
          "indexed": true,
          "internalType": "uint256",
          "name": "bufferPeriod",
          "type": "uint256"
        }
      ],
      "name": "BufferChanged",
      "type": "event"
    },
    {
      "anonymous": false,
      "inputs": [
        {
          "indexed": true,
          "internalType": "uint256",
          "name": "tokenId",
          "type": "uint256"
        },
        {
          "indexed": true,
          "internalType": "uint256",
          "name": "amount",
          "type": "uint256"
        }
      ],
      "name": "FundsAdded",
      "type": "event"
    },
    {
      "anonymous": false,
      "inputs": [
        {
          "indexed": true,
          "internalType": "uint256",
          "name": "tokenId",
          "type": "uint256"
        }
      ],
      "name": "HeirSigned",
      "type": "event"
    },
    {
      "anonymous": false,
      "inputs": [
        {
          "indexed": true,
          "internalType": "uint256",
          "name": "tokenId",
          "type": "uint256"
        }
      ],
      "name": "JudgeDeclaredTriggered",
      "type": "event"
    },
    {
      "anonymous": false,
      "inputs": [
        {
          "indexed": true,
          "internalType": "uint256",
          "name": "tokenId",
          "type": "uint256"
        },
        {
          "indexed": true,
          "internalType": "address",
          "name": "heir",
          "type": "address"
        }
      ],
      "name": "NFTInherited",
      "type": "event"
    },
    {
      "anonymous": false,
      "inputs": [
        {
          "indexed": true,
          "internalType": "uint256",
          "name": "tokenId",
          "type": "uint256"
        },
        {
          "indexed": true,
          "internalType": "address",
          "name": "heir",
          "type": "address"
        },
        {
          "indexed": true,
          "internalType": "uint256",
          "name": "amount",
          "type": "uint256"
        }
      ],
      "name": "NFTInheritedAndFundsReleased",
      "type": "event"
    },
    {
      "anonymous": false,
      "inputs": [
        {
          "indexed": true,
          "internalType": "address",
          "name": "previousOwner",
          "type": "address"
        },
        {
          "indexed": true,
          "internalType": "address",
          "name": "newOwner",
          "type": "address"
        }
      ],
      "name": "OwnershipTransferred",
      "type": "event"
    },
    {
      "anonymous": false,
      "inputs": [
        {
          "indexed": true,
          "internalType": "address",
          "name": "from",
          "type": "address"
        },
        {
          "indexed": true,
          "internalType": "address",
          "name": "to",
          "type": "address"
        },
        {
          "indexed": true,
          "internalType": "uint256",
          "name": "tokenId",
          "type": "uint256"
        }
      ],
      "name": "Transfer",
      "type": "event"
    },
    {
      "anonymous": false,
      "inputs": [
        {
          "indexed": true,
          "internalType": "uint256",
          "name": "tokenId",
          "type": "uint256"
        }
      ],
      "name": "TriggerDisabled",
      "type": "event"
    },
    {
      "inputs": [
        {
          "internalType": "uint256",
          "name": "tokenId",
          "type": "uint256"
        }
      ],
      "name": "addFunds",
      "outputs": [],
      "stateMutability": "payable",
      "type": "function"
    },
    {
      "inputs": [
        {
          "internalType": "address",
          "name": "to",
          "type": "address"
        },
        {
          "internalType": "uint256",
          "name": "tokenId",
          "type": "uint256"
        }
      ],
      "name": "approve",
      "outputs": [],
      "stateMutability": "nonpayable",
      "type": "function"
    },
    {
      "inputs": [
        {
          "internalType": "address",
          "name": "owner",
          "type": "address"
        }
      ],
      "name": "balanceOf",
      "outputs": [
        {
          "internalType": "uint256",
          "name": "",
          "type": "uint256"
        }
      ],
      "stateMutability": "view",
      "type": "function"
    },
    {
      "inputs": [
        {
          "internalType": "uint256",
          "name": "_buffer_period",
          "type": "uint256"
        }
      ],
      "name": "changeBuffer",
      "outputs": [],
      "stateMutability": "nonpayable",
      "type": "function"
    },
    {
      "inputs": [
        {
          "internalType": "uint256",
          "name": "tokenId",
          "type": "uint256"
        }
      ],
      "name": "declareTrigger",
      "outputs": [],
      "stateMutability": "nonpayable",
      "type": "function"
    },
    {
      "inputs": [
        {
          "internalType": "uint256",
          "name": "tokenId",
          "type": "uint256"
        }
      ],
      "name": "disableTrigger",
      "outputs": [],
      "stateMutability": "nonpayable",
      "type": "function"
    },
    {
      "inputs": [],
      "name": "getAllMinters",
      "outputs": [
        {
          "components": [
            {
              "internalType": "uint256",
              "name": "tokenId",
              "type": "uint256"
            },
            {
              "internalType": "address",
              "name": "minter",
              "type": "address"
            },
            {
              "internalType": "uint256",
              "name": "fid",
              "type": "uint256"
            }
          ],
          "internalType": "struct MemoraNFTV2.MinterData[]",
          "name": "",
          "type": "tuple[]"
        }
      ],
      "stateMutability": "view",
      "type": "function"
    },
    {
      "inputs": [
        {
          "internalType": "address",
          "name": "heir",
          "type": "address"
        }
      ],
      "name": "getAllNFTsForHeir",
      "outputs": [
        {
          "internalType": "uint256[]",
          "name": "",
          "type": "uint256[]"
        }
      ],
      "stateMutability": "view",
      "type": "function"
    },
    {
      "inputs": [
        {
          "internalType": "uint256",
          "name": "tokenId",
          "type": "uint256"
        }
      ],
      "name": "getApproved",
      "outputs": [
        {
          "internalType": "address",
          "name": "",
          "type": "address"
        }
      ],
      "stateMutability": "view",
      "type": "function"
    },
    {
      "inputs": [
        {
          "internalType": "address",
          "name": "owner",
          "type": "address"
        }
      ],
      "name": "getNFTsMintedByOwner",
      "outputs": [
        {
          "internalType": "uint256[]",
          "name": "",
          "type": "uint256[]"
        }
      ],
      "stateMutability": "view",
      "type": "function"
    },
    {
      "inputs": [
        {
          "internalType": "uint256",
          "name": "tokenId",
          "type": "uint256"
        }
      ],
      "name": "getTokenBalance",
      "outputs": [
        {
          "internalType": "uint256",
          "name": "",
          "type": "uint256"
        }
      ],
      "stateMutability": "view",
      "type": "function"
    },
    {
      "inputs": [
        {
          "internalType": "address",
          "name": "heir",
          "type": "address"
        }
      ],
      "name": "getTriggeredNFTsForHeir",
      "outputs": [
        {
          "internalType": "uint256[]",
          "name": "",
          "type": "uint256[]"
        }
      ],
      "stateMutability": "view",
      "type": "function"
    },
    {
      "inputs": [],
      "name": "getUnclaimedNFTs",
      "outputs": [
        {
          "components": [
            {
              "internalType": "uint256",
              "name": "tokenId",
              "type": "uint256"
            },
            {
              "internalType": "address",
              "name": "minter",
              "type": "address"
            },
            {
              "internalType": "uint256",
              "name": "fid",
              "type": "uint256"
            }
          ],
          "internalType": "struct MemoraNFTV2.MinterData[]",
          "name": "",
          "type": "tuple[]"
        }
      ],
      "stateMutability": "view",
      "type": "function"
    },
    {
      "inputs": [
        {
          "internalType": "uint256",
          "name": "tokenId",
          "type": "uint256"
        }
      ],
      "name": "heirSign",
      "outputs": [],
      "stateMutability": "nonpayable",
      "type": "function"
    },
    {
      "inputs": [
        {
          "internalType": "address",
          "name": "owner",
          "type": "address"
        },
        {
          "internalType": "address",
          "name": "operator",
          "type": "address"
        }
      ],
      "name": "isApprovedForAll",
      "outputs": [
        {
          "internalType": "bool",
          "name": "",
          "type": "bool"
        }
      ],
      "stateMutability": "view",
      "type": "function"
    },
    {
      "inputs": [
        {
          "internalType": "address",
          "name": "heir",
          "type": "address"
        },
        {
          "internalType": "uint256",
          "name": "choice",
          "type": "uint256"
        },
        {
          "internalType": "string",
          "name": "prompt",
          "type": "string"
        },
        {
          "internalType": "string",
          "name": "tokenURI",
          "type": "string"
        },
        {
          "internalType": "uint256",
          "name": "farcasterID",
          "type": "uint256"
        }
      ],
      "name": "mint",
      "outputs": [
        {
          "internalType": "uint256",
          "name": "",
          "type": "uint256"
        }
      ],
      "stateMutability": "nonpayable",
      "type": "function"
    },
    {
      "inputs": [],
      "name": "name",
      "outputs": [
        {
          "internalType": "string",
          "name": "",
          "type": "string"
        }
      ],
      "stateMutability": "view",
      "type": "function"
    },
    {
      "inputs": [],
      "name": "owner",
      "outputs": [
        {
          "internalType": "address",
          "name": "",
          "type": "address"
        }
      ],
      "stateMutability": "view",
      "type": "function"
    },
    {
      "inputs": [
        {
          "internalType": "uint256",
          "name": "tokenId",
          "type": "uint256"
        }
      ],
      "name": "ownerOf",
      "outputs": [
        {
          "internalType": "address",
          "name": "",
          "type": "address"
        }
      ],
      "stateMutability": "view",
      "type": "function"
    },
    {
      "inputs": [],
      "name": "renounceOwnership",
      "outputs": [],
      "stateMutability": "nonpayable",
      "type": "function"
    },
    {
      "inputs": [
        {
          "internalType": "address",
          "name": "from",
          "type": "address"
        },
        {
          "internalType": "address",
          "name": "to",
          "type": "address"
        },
        {
          "internalType": "uint256",
          "name": "tokenId",
          "type": "uint256"
        }
      ],
      "name": "safeTransferFrom",
      "outputs": [],
      "stateMutability": "nonpayable",
      "type": "function"
    },
    {
      "inputs": [
        {
          "internalType": "address",
          "name": "from",
          "type": "address"
        },
        {
          "internalType": "address",
          "name": "to",
          "type": "address"
        },
        {
          "internalType": "uint256",
          "name": "tokenId",
          "type": "uint256"
        },
        {
          "internalType": "bytes",
          "name": "data",
          "type": "bytes"
        }
      ],
      "name": "safeTransferFrom",
      "outputs": [],
      "stateMutability": "nonpayable",
      "type": "function"
    },
    {
      "inputs": [
        {
          "internalType": "address",
          "name": "operator",
          "type": "address"
        },
        {
          "internalType": "bool",
          "name": "approved",
          "type": "bool"
        }
      ],
      "name": "setApprovalForAll",
      "outputs": [],
      "stateMutability": "nonpayable",
      "type": "function"
    },
    {
      "inputs": [
        {
          "internalType": "bytes4",
          "name": "interfaceId",
          "type": "bytes4"
        }
      ],
      "name": "supportsInterface",
      "outputs": [
        {
          "internalType": "bool",
          "name": "",
          "type": "bool"
        }
      ],
      "stateMutability": "view",
      "type": "function"
    },
    {
      "inputs": [],
      "name": "symbol",
      "outputs": [
        {
          "internalType": "string",
          "name": "",
          "type": "string"
        }
      ],
      "stateMutability": "view",
      "type": "function"
    },
    {
      "inputs": [
        {
          "internalType": "uint256",
          "name": "",
          "type": "uint256"
        }
      ],
      "name": "tokenInfo",
      "outputs": [
        {
          "internalType": "address",
          "name": "judge",
          "type": "address"
        },
        {
          "internalType": "address",
          "name": "heir",
          "type": "address"
        },
        {
          "internalType": "bool",
          "name": "isTriggerDeclared",
          "type": "bool"
        },
        {
          "internalType": "bool",
          "name": "isHeirSigned",
          "type": "bool"
        },
        {
          "internalType": "address",
          "name": "minter",
          "type": "address"
        },
        {
          "internalType": "string",
          "name": "prompt",
          "type": "string"
        },
        {
          "internalType": "enum MemoraNFTV2.AccountAction",
          "name": "actions",
          "type": "uint8"
        },
        {
          "internalType": "uint256",
          "name": "triggerTimestamp",
          "type": "uint256"
        },
        {
          "internalType": "uint256",
          "name": "balance",
          "type": "uint256"
        },
        {
          "internalType": "string",
          "name": "uri",
          "type": "string"
        },
        {
          "internalType": "uint256",
          "name": "farcasterID",
          "type": "uint256"
        }
      ],
      "stateMutability": "view",
      "type": "function"
    },
    {
      "inputs": [
        {
          "internalType": "uint256",
          "name": "tokenId",
          "type": "uint256"
        }
      ],
      "name": "tokenURI",
      "outputs": [
        {
          "internalType": "string",
          "name": "",
          "type": "string"
        }
      ],
      "stateMutability": "view",
      "type": "function"
    },
    {
      "inputs": [
        {
          "internalType": "address",
          "name": "from",
          "type": "address"
        },
        {
          "internalType": "address",
          "name": "to",
          "type": "address"
        },
        {
          "internalType": "uint256",
          "name": "tokenId",
          "type": "uint256"
        }
      ],
      "name": "transferFrom",
      "outputs": [],
      "stateMutability": "nonpayable",
      "type": "function"
    },
    {
      "inputs": [
        {
          "internalType": "address",
          "name": "newOwner",
          "type": "address"
        }
      ],
      "name": "transferOwnership",
      "outputs": [],
      "stateMutability": "nonpayable",
      "type": "function"
    },
    {
      "inputs": [
        {
          "internalType": "uint256",
          "name": "tokenId",
          "type": "uint256"
        }
      ],
      "name": "withdrawFunds",
      "outputs": [],
      "stateMutability": "nonpayable",
      "type": "function"
    }
  ],
  "bytecode": "0x60a060405261012c6009553480156200001757600080fd5b50604051620065253803806200652583398181016040528101906200003d919062000388565b828281600090816200005091906200066d565b5080600190816200006291906200066d565b5050506200008562000079620000c260201b60201c565b620000ca60201b60201c565b8073ffffffffffffffffffffffffffffffffffffffff1660808173ffffffffffffffffffffffffffffffffffffffff168152505050505062000754565b600033905090565b6000600760009054906101000a900473ffffffffffffffffffffffffffffffffffffffff16905081600760006101000a81548173ffffffffffffffffffffffffffffffffffffffff021916908373ffffffffffffffffffffffffffffffffffffffff1602179055508173ffffffffffffffffffffffffffffffffffffffff168173ffffffffffffffffffffffffffffffffffffffff167f8be0079c531659141344cd1fd0a4f28419497f9722a3daafe3b4186f6b6457e060405160405180910390a35050565b6000604051905090565b600080fd5b600080fd5b600080fd5b600080fd5b6000601f19601f8301169050919050565b7f4e487b7100000000000000000000000000000000000000000000000000000000600052604160045260246000fd5b620001f982620001ae565b810181811067ffffffffffffffff821117156200021b576200021a620001bf565b5b80604052505050565b60006200023062000190565b90506200023e8282620001ee565b919050565b600067ffffffffffffffff821115620002615762000260620001bf565b5b6200026c82620001ae565b9050602081019050919050565b60005b83811015620002995780820151818401526020810190506200027c565b60008484015250505050565b6000620002bc620002b68462000243565b62000224565b905082815260208101848484011115620002db57620002da620001a9565b5b620002e884828562000279565b509392505050565b600082601f830112620003085762000307620001a4565b5b81516200031a848260208601620002a5565b91505092915050565b600073ffffffffffffffffffffffffffffffffffffffff82169050919050565b6000620003508262000323565b9050919050565b620003628162000343565b81146200036e57600080fd5b50565b600081519050620003828162000357565b92915050565b600080600060608486031215620003a457620003a36200019a565b5b600084015167ffffffffffffffff811115620003c557620003c46200019f565b5b620003d386828701620002f0565b935050602084015167ffffffffffffffff811115620003f757620003f66200019f565b5b6200040586828701620002f0565b9250506040620004188682870162000371565b9150509250925092565b600081519050919050565b7f4e487b7100000000000000000000000000000000000000000000000000000000600052602260045260246000fd5b600060028204905060018216806200047557607f821691505b6020821081036200048b576200048a6200042d565b5b50919050565b60008190508160005260206000209050919050565b60006020601f8301049050919050565b600082821b905092915050565b600060088302620004f57fffffffffffffffffffffffffffffffffffffffffffffffffffffffffffffffff82620004b6565b620005018683620004b6565b95508019841693508086168417925050509392505050565b6000819050919050565b6000819050919050565b60006200054e62000548620005428462000519565b62000523565b62000519565b9050919050565b6000819050919050565b6200056a836200052d565b62000582620005798262000555565b848454620004c3565b825550505050565b600090565b620005996200058a565b620005a68184846200055f565b505050565b5b81811015620005ce57620005c26000826200058f565b600181019050620005ac565b5050565b601f8211156200061d57620005e78162000491565b620005f284620004a6565b8101602085101562000602578190505b6200061a6200061185620004a6565b830182620005ab565b50505b505050565b600082821c905092915050565b6000620006426000198460080262000622565b1980831691505092915050565b60006200065d83836200062f565b9150826002028217905092915050565b620006788262000422565b67ffffffffffffffff811115620006945762000693620001bf565b5b620006a082546200045c565b620006ad828285620005d2565b600060209050601f831160018114620006e55760008415620006d0578287015190505b620006dc85826200064f565b8655506200074c565b601f198416620006f58662000491565b60005b828110156200071f57848901518255600182019150602085019450602081019050620006f8565b868310156200073f57848901516200073b601f8916826200062f565b8355505b6001600288020188555050505b505050505050565b608051615db56200077060003960006117970152615db56000f3fe6080604052600436106101cd5760003560e01c806395d89b41116100f7578063c1c9a89311610095578063d1d445c911610064578063d1d445c9146106cd578063e3a55663146106f6578063e985e9c51461071f578063f2fde38b1461075c576101cd565b8063c1c9a893146105cf578063c87b56dd1461060c578063cc33c87514610649578063cf073b1514610690576101cd565b8063a22cb465116100d1578063a22cb46514610524578063af72bd911461054d578063b88d4fde1461058a578063be999705146105b3576101cd565b806395d89b411461049157806397056a65146104bc578063a045442c146104f9576101cd565b806342842e0e1161016f57806370a082311161013e57806370a08231146103d5578063715018a6146104125780638da5cb5b146104295780639105d74814610454576101cd565b806342842e0e1461031b5780634e994f611461034457806355b47b951461036f5780636352211e14610398576101cd565b8063095ea7b3116101ab578063095ea7b314610277578063155dd5ee146102a057806323b872dd146102c95780632e726f02146102f2576101cd565b806301ffc9a7146101d257806306fdde031461020f578063081812fc1461023a575b600080fd5b3480156101de57600080fd5b506101f960048036038101906101f491906140fb565b610785565b6040516102069190614143565b60405180910390f35b34801561021b57600080fd5b50610224610867565b60405161023191906141ee565b60405180910390f35b34801561024657600080fd5b50610261600480360381019061025c9190614246565b6108f9565b60405161026e91906142b4565b60405180910390f35b34801561028357600080fd5b5061029e600480360381019061029991906142fb565b61093f565b005b3480156102ac57600080fd5b506102c760048036038101906102c29190614246565b610a56565b005b3480156102d557600080fd5b506102f060048036038101906102eb919061433b565b610c0d565b005b3480156102fe57600080fd5b5061031960048036038101906103149190614246565b610c6d565b005b34801561032757600080fd5b50610342600480360381019061033d919061433b565b610def565b005b34801561035057600080fd5b50610359610e0f565b604051610366919061449d565b60405180910390f35b34801561037b57600080fd5b5061039660048036038101906103919190614246565b61107f565b005b3480156103a457600080fd5b506103bf60048036038101906103ba9190614246565b6110be565b6040516103cc91906142b4565b60405180910390f35b3480156103e157600080fd5b506103fc60048036038101906103f791906144bf565b611144565b60405161040991906144fb565b60405180910390f35b34801561041e57600080fd5b506104276111fb565b005b34801561043557600080fd5b5061043e61120f565b60405161044b91906142b4565b60405180910390f35b34801561046057600080fd5b5061047b60048036038101906104769190614246565b611239565b60405161048891906144fb565b60405180910390f35b34801561049d57600080fd5b506104a66112fd565b6040516104b391906141ee565b60405180910390f35b3480156104c857600080fd5b506104e360048036038101906104de91906144bf565b61138f565b6040516104f091906145c5565b60405180910390f35b34801561050557600080fd5b5061050e611653565b60405161051b919061449d565b60405180910390f35b34801561053057600080fd5b5061054b60048036038101906105469190614613565b61171c565b005b34801561055957600080fd5b50610574600480360381019061056f9190614788565b611732565b60405161058191906144fb565b60405180910390f35b34801561059657600080fd5b506105b160048036038101906105ac91906148dc565b611b18565b005b6105cd60048036038101906105c89190614246565b611b7a565b005b3480156105db57600080fd5b506105f660048036038101906105f191906144bf565b611c7d565b60405161060391906145c5565b60405180910390f35b34801561061857600080fd5b50610633600480360381019061062e9190614246565b611e5d565b60405161064091906141ee565b60405180910390f35b34801561065557600080fd5b50610670600480360381019061066b9190614246565b611f6f565b6040516106879b9a999897969594939291906149d6565b60405180910390f35b34801561069c57600080fd5b506106b760048036038101906106b291906144bf565b612160565b6040516106c491906145c5565b60405180910390f35b3480156106d957600080fd5b506106f460048036038101906106ef9190614246565b612340565b005b34801561070257600080fd5b5061071d60048036038101906107189190614246565b6124f7565b005b34801561072b57600080fd5b5061074660048036038101906107419190614a8f565b612c18565b6040516107539190614143565b60405180910390f35b34801561076857600080fd5b50610783600480360381019061077e91906144bf565b612cac565b005b60007f80ac58cd000000000000000000000000000000000000000000000000000000007bffffffffffffffffffffffffffffffffffffffffffffffffffffffff1916827bffffffffffffffffffffffffffffffffffffffffffffffffffffffff1916148061085057507f5b5e139f000000000000000000000000000000000000000000000000000000007bffffffffffffffffffffffffffffffffffffffffffffffffffffffff1916827bffffffffffffffffffffffffffffffffffffffffffffffffffffffff1916145b80610860575061085f82612d2f565b5b9050919050565b60606000805461087690614afe565b80601f01602080910402602001604051908101604052809291908181526020018280546108a290614afe565b80156108ef5780601f106108c4576101008083540402835291602001916108ef565b820191906000526020600020905b8154815290600101906020018083116108d257829003601f168201915b5050505050905090565b600061090482612d99565b6004600083815260200190815260200160002060009054906101000a900473ffffffffffffffffffffffffffffffffffffffff169050919050565b600061094a826110be565b90508073ffffffffffffffffffffffffffffffffffffffff168373ffffffffffffffffffffffffffffffffffffffff16036109ba576040517f08c379a00000000000000000000000000000000000000000000000000000000081526004016109b190614ba1565b60405180910390fd5b8073ffffffffffffffffffffffffffffffffffffffff166109d9612de4565b73ffffffffffffffffffffffffffffffffffffffff161480610a085750610a0781610a02612de4565b612c18565b5b610a47576040517f08c379a0000000000000000000000000000000000000000000000000000000008152600401610a3e90614c33565b60405180910390fd5b610a518383612dec565b505050565b3373ffffffffffffffffffffffffffffffffffffffff16610a76826110be565b73ffffffffffffffffffffffffffffffffffffffff1614610acc576040517f08c379a0000000000000000000000000000000000000000000000000000000008152600401610ac390614cc5565b60405180910390fd5b6000600a60008381526020019081526020016000206006015411610b25576040517f08c379a0000000000000000000000000000000000000000000000000000000008152600401610b1c90614d31565b60405180910390fd5b6000600a60008381526020019081526020016000206006015490506000600a60008481526020019081526020016000206006018190555060003373ffffffffffffffffffffffffffffffffffffffff1682604051610b8290614d82565b60006040518083038185875af1925050503d8060008114610bbf576040519150601f19603f3d011682016040523d82523d6000602084013e610bc4565b606091505b5050905080610c08576040517f08c379a0000000000000000000000000000000000000000000000000000000008152600401610bff90614de3565b60405180910390fd5b505050565b610c1e610c18612de4565b82612ea5565b610c5d576040517f08c379a0000000000000000000000000000000000000000000000000000000008152600401610c5490614e75565b60405180910390fd5b610c68838383612f3a565b505050565b600a600082815260200190815260200160002060000160009054906101000a900473ffffffffffffffffffffffffffffffffffffffff1673ffffffffffffffffffffffffffffffffffffffff163373ffffffffffffffffffffffffffffffffffffffff1614610d11576040517f08c379a0000000000000000000000000000000000000000000000000000000008152600401610d0890614f07565b60405180910390fd5b600a600082815260200190815260200160002060010160149054906101000a900460ff1615610d75576040517f08c379a0000000000000000000000000000000000000000000000000000000008152600401610d6c90614f73565b60405180910390fd5b6001600a600083815260200190815260200160002060010160146101000a81548160ff02191690831515021790555042600a600083815260200190815260200160002060050181905550807f201090e8dc5d2ffa88ad42c256e5970196d8e57d99c70ba96fd262263402c71360405160405180910390a250565b610e0a83838360405180602001604052806000815250611b18565b505050565b60606000805b610e1f6008613233565b811015610eb757600a6000600183610e379190614fc2565b815260200190815260200160002060010160149054906101000a900460ff16158015610e905750600a6000600183610e6f9190614fc2565b815260200190815260200160002060010160159054906101000a900460ff16155b15610ea4578180610ea090614ff6565b9250505b8080610eaf90614ff6565b915050610e15565b5060008167ffffffffffffffff811115610ed457610ed361465d565b5b604051908082528060200260200182016040528015610f0d57816020015b610efa613ffb565b815260200190600190039081610ef25790505b5090506000805b610f1e6008613233565b81101561107557600a6000600183610f369190614fc2565b815260200190815260200160002060010160149054906101000a900460ff16158015610f8f5750600a6000600183610f6e9190614fc2565b815260200190815260200160002060010160159054906101000a900460ff16155b15611062576040518060600160405280600183610fac9190614fc2565b8152602001600a6000600185610fc29190614fc2565b815260200190815260200160002060020160009054906101000a900473ffffffffffffffffffffffffffffffffffffffff1673ffffffffffffffffffffffffffffffffffffffff168152602001600a60006001856110209190614fc2565b8152602001908152602001600020600801548152508383815181106110485761104761503e565b5b6020026020010181905250818061105e90614ff6565b9250505b808061106d90614ff6565b915050610f14565b5081935050505090565b611087613241565b80600981905550807f4586d7d1a9b5cd2bdc5d6ada3fdda18dc659b9defca3e830f19f40a88954c81f60405160405180910390a250565b6000806110ca836132bf565b9050600073ffffffffffffffffffffffffffffffffffffffff168173ffffffffffffffffffffffffffffffffffffffff160361113b576040517f08c379a0000000000000000000000000000000000000000000000000000000008152600401611132906150b9565b60405180910390fd5b80915050919050565b60008073ffffffffffffffffffffffffffffffffffffffff168273ffffffffffffffffffffffffffffffffffffffff16036111b4576040517f08c379a00000000000000000000000000000000000000000000000000000000081526004016111ab9061514b565b60405180910390fd5b600360008373ffffffffffffffffffffffffffffffffffffffff1673ffffffffffffffffffffffffffffffffffffffff168152602001908152602001600020549050919050565b611203613241565b61120d60006132fc565b565b6000600760009054906101000a900473ffffffffffffffffffffffffffffffffffffffff16905090565b60008073ffffffffffffffffffffffffffffffffffffffff16600a600084815260200190815260200160002060020160009054906101000a900473ffffffffffffffffffffffffffffffffffffffff1673ffffffffffffffffffffffffffffffffffffffff16036112df576040517f08c379a00000000000000000000000000000000000000000000000000000000081526004016112d6906151b7565b60405180910390fd5b600a6000838152602001908152602001600020600601549050919050565b60606001805461130c90614afe565b80601f016020809104026020016040519081016040528092919081815260200182805461133890614afe565b80156113855780601f1061135a57610100808354040283529160200191611385565b820191906000526020600020905b81548152906001019060200180831161136857829003601f168201915b5050505050905090565b60606000805b61139f6008613233565b8110156114af578373ffffffffffffffffffffffffffffffffffffffff16600a60006001846113ce9190614fc2565b815260200190815260200160002060010160009054906101000a900473ffffffffffffffffffffffffffffffffffffffff1673ffffffffffffffffffffffffffffffffffffffff1614801561144f5750600a600060018361142f9190614fc2565b815260200190815260200160002060010160149054906101000a900460ff165b80156114885750600a60006001836114679190614fc2565b815260200190815260200160002060010160159054906101000a900460ff16155b1561149c57818061149890614ff6565b9250505b80806114a790614ff6565b915050611395565b5060008167ffffffffffffffff8111156114cc576114cb61465d565b5b6040519080825280602002602001820160405280156114fa5781602001602082028036833780820191505090505b5090506000805b61150b6008613233565b811015611647578573ffffffffffffffffffffffffffffffffffffffff16600a600060018461153a9190614fc2565b815260200190815260200160002060010160009054906101000a900473ffffffffffffffffffffffffffffffffffffffff1673ffffffffffffffffffffffffffffffffffffffff161480156115bb5750600a600060018361159b9190614fc2565b815260200190815260200160002060010160149054906101000a900460ff165b80156115f45750600a60006001836115d39190614fc2565b815260200190815260200160002060010160159054906101000a900460ff16155b15611634576001816116069190614fc2565b8383815181106116195761161861503e565b5b602002602001018181525050818061163090614ff6565b9250505b808061163f90614ff6565b915050611501565b50819350505050919050565b6060600b805480602002602001604051908101604052809291908181526020016000905b828210156117135783829060005260206000209060030201604051806060016040529081600082015481526020016001820160009054906101000a900473ffffffffffffffffffffffffffffffffffffffff1673ffffffffffffffffffffffffffffffffffffffff1673ffffffffffffffffffffffffffffffffffffffff16815260200160028201548152505081526020019060010190611677565b50505050905090565b61172e611727612de4565b83836133c2565b5050565b600061173e600861352e565b600061174a6008613233565b90506117563382613544565b6117608185613562565b60008087036117725760009050611789565b600187036117835760019050611788565b600290505b5b6040518061016001604052807f000000000000000000000000000000000000000000000000000000000000000073ffffffffffffffffffffffffffffffffffffffff1681526020018973ffffffffffffffffffffffffffffffffffffffff1681526020016000151581526020016000151581526020013373ffffffffffffffffffffffffffffffffffffffff1681526020018781526020018260028111156118345761183361495f565b5b8152602001600081526020016000815260200186815260200185815250600a600084815260200190815260200160002060008201518160000160006101000a81548173ffffffffffffffffffffffffffffffffffffffff021916908373ffffffffffffffffffffffffffffffffffffffff16021790555060208201518160010160006101000a81548173ffffffffffffffffffffffffffffffffffffffff021916908373ffffffffffffffffffffffffffffffffffffffff16021790555060408201518160010160146101000a81548160ff02191690831515021790555060608201518160010160156101000a81548160ff02191690831515021790555060808201518160020160006101000a81548173ffffffffffffffffffffffffffffffffffffffff021916908373ffffffffffffffffffffffffffffffffffffffff16021790555060a082015181600301908161198e9190615383565b5060c08201518160040160006101000a81548160ff021916908360028111156119ba576119b961495f565b5b021790555060e0820151816005015561010082015181600601556101208201518160070190816119ea9190615383565b506101408201518160080155905050600b60405180606001604052808481526020013373ffffffffffffffffffffffffffffffffffffffff1681526020018681525090806001815401808255809150506001900390600052602060002090600302016000909190919091506000820151816000015560208201518160010160006101000a81548173ffffffffffffffffffffffffffffffffffffffff021916908373ffffffffffffffffffffffffffffffffffffffff1602179055506040820151816002015550506001600c60003373ffffffffffffffffffffffffffffffffffffffff1673ffffffffffffffffffffffffffffffffffffffff16815260200190815260200160002060006101000a81548160ff021916908315150217905550819250505095945050505050565b611b29611b23612de4565b83612ea5565b611b68576040517f08c379a0000000000000000000000000000000000000000000000000000000008152600401611b5f90614e75565b60405180910390fd5b611b74848484846135cf565b50505050565b600073ffffffffffffffffffffffffffffffffffffffff16600a600083815260200190815260200160002060020160009054906101000a900473ffffffffffffffffffffffffffffffffffffffff1673ffffffffffffffffffffffffffffffffffffffff1603611c1f576040517f08c379a0000000000000000000000000000000000000000000000000000000008152600401611c16906151b7565b60405180910390fd5b34600a60008381526020019081526020016000206006016000828254611c459190614fc2565b9250508190555034817ff5e4934928a1e45d88c7a5aa2661fe0a801ca5017922e15122d74f1880155e1a60405160405180910390a350565b60606000805b611c8d6008613233565b811015611d2b578373ffffffffffffffffffffffffffffffffffffffff16600a6000600184611cbc9190614fc2565b815260200190815260200160002060010160009054906101000a900473ffffffffffffffffffffffffffffffffffffffff1673ffffffffffffffffffffffffffffffffffffffff1603611d18578180611d1490614ff6565b9250505b8080611d2390614ff6565b915050611c83565b5060008167ffffffffffffffff811115611d4857611d4761465d565b5b604051908082528060200260200182016040528015611d765781602001602082028036833780820191505090505b5090506000805b611d876008613233565b811015611e51578573ffffffffffffffffffffffffffffffffffffffff16600a6000600184611db69190614fc2565b815260200190815260200160002060010160009054906101000a900473ffffffffffffffffffffffffffffffffffffffff1673ffffffffffffffffffffffffffffffffffffffff1603611e3e57600181611e109190614fc2565b838381518110611e2357611e2261503e565b5b6020026020010181815250508180611e3a90614ff6565b9250505b8080611e4990614ff6565b915050611d7d565b50819350505050919050565b6060611e6882612d99565b6000600660008481526020019081526020016000208054611e8890614afe565b80601f0160208091040260200160405190810160405280929190818152602001828054611eb490614afe565b8015611f015780601f10611ed657610100808354040283529160200191611f01565b820191906000526020600020905b815481529060010190602001808311611ee457829003601f168201915b505050505090506000611f1261362b565b90506000815103611f27578192505050611f6a565b600082511115611f5c578082604051602001611f44929190615491565b60405160208183030381529060405292505050611f6a565b611f6584613642565b925050505b919050565b600a6020528060005260406000206000915090508060000160009054906101000a900473ffffffffffffffffffffffffffffffffffffffff16908060010160009054906101000a900473ffffffffffffffffffffffffffffffffffffffff16908060010160149054906101000a900460ff16908060010160159054906101000a900460ff16908060020160009054906101000a900473ffffffffffffffffffffffffffffffffffffffff169080600301805461202a90614afe565b80601f016020809104026020016040519081016040528092919081815260200182805461205690614afe565b80156120a35780601f10612078576101008083540402835291602001916120a3565b820191906000526020600020905b81548152906001019060200180831161208657829003601f168201915b5050505050908060040160009054906101000a900460ff16908060050154908060060154908060070180546120d790614afe565b80601f016020809104026020016040519081016040528092919081815260200182805461210390614afe565b80156121505780601f1061212557610100808354040283529160200191612150565b820191906000526020600020905b81548152906001019060200180831161213357829003601f168201915b505050505090806008015490508b565b60606000805b6121706008613233565b81101561220e578373ffffffffffffffffffffffffffffffffffffffff16600a600060018461219f9190614fc2565b815260200190815260200160002060020160009054906101000a900473ffffffffffffffffffffffffffffffffffffffff1673ffffffffffffffffffffffffffffffffffffffff16036121fb5781806121f790614ff6565b9250505b808061220690614ff6565b915050612166565b5060008167ffffffffffffffff81111561222b5761222a61465d565b5b6040519080825280602002602001820160405280156122595781602001602082028036833780820191505090505b5090506000805b61226a6008613233565b811015612334578573ffffffffffffffffffffffffffffffffffffffff16600a60006001846122999190614fc2565b815260200190815260200160002060020160009054906101000a900473ffffffffffffffffffffffffffffffffffffffff1673ffffffffffffffffffffffffffffffffffffffff1603612321576001816122f39190614fc2565b8383815181106123065761230561503e565b5b602002602001018181525050818061231d90614ff6565b9250505b808061232c90614ff6565b915050612260565b50819350505050919050565b3373ffffffffffffffffffffffffffffffffffffffff16612360826110be565b73ffffffffffffffffffffffffffffffffffffffff16146123b6576040517f08c379a00000000000000000000000000000000000000000000000000000000081526004016123ad90615527565b60405180910390fd5b600a600082815260200190815260200160002060010160149054906101000a900460ff16612419576040517f08c379a0000000000000000000000000000000000000000000000000000000008152600401612410906155b9565b60405180910390fd5b600a600082815260200190815260200160002060010160159054906101000a900460ff161561247d576040517f08c379a000000000000000000000000000000000000000000000000000000000815260040161247490615625565b60405180910390fd5b6000600a600083815260200190815260200160002060010160146101000a81548160ff0219169083151502179055506000600a600083815260200190815260200160002060050181905550807ed70b89dda596603dffa8ae0430ba524d61e3363e95f2b11b675ef6996800df60405160405180910390a250565b600a600082815260200190815260200160002060010160009054906101000a900473ffffffffffffffffffffffffffffffffffffffff1673ffffffffffffffffffffffffffffffffffffffff163373ffffffffffffffffffffffffffffffffffffffff161461259b576040517f08c379a000000000000000000000000000000000000000000000000000000000815260040161259290615691565b60405180910390fd5b600a600082815260200190815260200160002060010160149054906101000a900460ff166125fe576040517f08c379a00000000000000000000000000000000000000000000000000000000081526004016125f590615723565b60405180910390fd5b600a600082815260200190815260200160002060010160159054906101000a900460ff1615612662576040517f08c379a000000000000000000000000000000000000000000000000000000000815260040161265990615625565b60405180910390fd5b600954600a6000838152602001908152602001600020600501546126869190614fc2565b4210156126c8576040517f08c379a00000000000000000000000000000000000000000000000000000000081526004016126bf9061578f565b60405180910390fd5b6001600a600083815260200190815260200160002060010160156101000a81548160ff021916908315150217905550807fd8d0fcc172e0a1da7409aba559a365f9b8632d4391604ea2470f5c078242009160405160405180910390a2600a600082815260200190815260200160002060010160149054906101000a900460ff1680156127745750600a600082815260200190815260200160002060010160159054906101000a900460ff165b80156127c757506000600281111561278f5761278e61495f565b5b600a600083815260200190815260200160002060040160009054906101000a900460ff1660028111156127c5576127c461495f565b5b145b15612864576000600a600083815260200190815260200160002060010160009054906101000a900473ffffffffffffffffffffffffffffffffffffffff16905061281a612813836110be565b8284612f3a565b8073ffffffffffffffffffffffffffffffffffffffff16827f169c32b1acc7308540327ea8385e056055a70cd175f2f6b5aae9e8fa32a15bec60405160405180910390a350612c15565b600a600082815260200190815260200160002060010160149054906101000a900460ff1680156128b45750600a600082815260200190815260200160002060010160159054906101000a900460ff165b80156129075750600160028111156128cf576128ce61495f565b5b600a600083815260200190815260200160002060040160009054906101000a900460ff1660028111156129055761290461495f565b5b145b156129e257612915816136aa565b6040518060600160405280600081526020013373ffffffffffffffffffffffffffffffffffffffff168152602001600a600084815260200190815260200160002060080154815250600b82815481106129715761297061503e565b5b90600052602060002090600302016000820151816000015560208201518160010160006101000a81548173ffffffffffffffffffffffffffffffffffffffff021916908373ffffffffffffffffffffffffffffffffffffffff16021790555060408201518160020155905050612c14565b600a600082815260200190815260200160002060010160149054906101000a900460ff168015612a325750600a600082815260200190815260200160002060010160159054906101000a900460ff165b8015612a845750600280811115612a4c57612a4b61495f565b5b600a600083815260200190815260200160002060040160009054906101000a900460ff166002811115612a8257612a8161495f565b5b145b15612c13576000600a600083815260200190815260200160002060010160009054906101000a900473ffffffffffffffffffffffffffffffffffffffff169050612ad7612ad0836110be565b8284612f3a565b60008173ffffffffffffffffffffffffffffffffffffffff16600a600085815260200190815260200160002060060154604051612b1390614d82565b60006040518083038185875af1925050503d8060008114612b50576040519150601f19603f3d011682016040523d82523d6000602084013e612b55565b606091505b5050905080612b99576040517f08c379a0000000000000000000000000000000000000000000000000000000008152600401612b9090614de3565b60405180910390fd5b600a6000848152602001908152602001600020600601548273ffffffffffffffffffffffffffffffffffffffff16847f9caa799cd64141f1c4d5fa73baf3b5c7fae0e688d164e67d097e657c0848088e60405160405180910390a46000600a60008581526020019081526020016000206006018190555050505b5b5b50565b6000600560008473ffffffffffffffffffffffffffffffffffffffff1673ffffffffffffffffffffffffffffffffffffffff16815260200190815260200160002060008373ffffffffffffffffffffffffffffffffffffffff1673ffffffffffffffffffffffffffffffffffffffff16815260200190815260200160002060009054906101000a900460ff16905092915050565b612cb4613241565b600073ffffffffffffffffffffffffffffffffffffffff168173ffffffffffffffffffffffffffffffffffffffff1603612d23576040517f08c379a0000000000000000000000000000000000000000000000000000000008152600401612d1a90615821565b60405180910390fd5b612d2c816132fc565b50565b60007f01ffc9a7000000000000000000000000000000000000000000000000000000007bffffffffffffffffffffffffffffffffffffffffffffffffffffffff1916827bffffffffffffffffffffffffffffffffffffffffffffffffffffffff1916149050919050565b612da2816136fd565b612de1576040517f08c379a0000000000000000000000000000000000000000000000000000000008152600401612dd8906150b9565b60405180910390fd5b50565b600033905090565b816004600083815260200190815260200160002060006101000a81548173ffffffffffffffffffffffffffffffffffffffff021916908373ffffffffffffffffffffffffffffffffffffffff160217905550808273ffffffffffffffffffffffffffffffffffffffff16612e5f836110be565b73ffffffffffffffffffffffffffffffffffffffff167f8c5be1e5ebec7d5bd14f71427d1e84f3dd0314c0f7b2291e5b200ac8c7c3b92560405160405180910390a45050565b600080612eb1836110be565b90508073ffffffffffffffffffffffffffffffffffffffff168473ffffffffffffffffffffffffffffffffffffffff161480612ef35750612ef28185612c18565b5b80612f3157508373ffffffffffffffffffffffffffffffffffffffff16612f19846108f9565b73ffffffffffffffffffffffffffffffffffffffff16145b91505092915050565b8273ffffffffffffffffffffffffffffffffffffffff16612f5a826110be565b73ffffffffffffffffffffffffffffffffffffffff1614612fb0576040517f08c379a0000000000000000000000000000000000000000000000000000000008152600401612fa7906158b3565b60405180910390fd5b600073ffffffffffffffffffffffffffffffffffffffff168273ffffffffffffffffffffffffffffffffffffffff160361301f576040517f08c379a000000000000000000000000000000000000000000000000000000000815260040161301690615945565b60405180910390fd5b61302c838383600161373e565b8273ffffffffffffffffffffffffffffffffffffffff1661304c826110be565b73ffffffffffffffffffffffffffffffffffffffff16146130a2576040517f08c379a0000000000000000000000000000000000000000000000000000000008152600401613099906158b3565b60405180910390fd5b6004600082815260200190815260200160002060006101000a81549073ffffffffffffffffffffffffffffffffffffffff02191690556001600360008573ffffffffffffffffffffffffffffffffffffffff1673ffffffffffffffffffffffffffffffffffffffff168152602001908152602001600020600082825403925050819055506001600360008473ffffffffffffffffffffffffffffffffffffffff1673ffffffffffffffffffffffffffffffffffffffff16815260200190815260200160002060008282540192505081905550816002600083815260200190815260200160002060006101000a81548173ffffffffffffffffffffffffffffffffffffffff021916908373ffffffffffffffffffffffffffffffffffffffff160217905550808273ffffffffffffffffffffffffffffffffffffffff168473ffffffffffffffffffffffffffffffffffffffff167fddf252ad1be2c89b69c2b068fc378daa952ba7f163c4a11628f55a4df523b3ef60405160405180910390a461322e8383836001613864565b505050565b600081600001549050919050565b613249612de4565b73ffffffffffffffffffffffffffffffffffffffff1661326761120f565b73ffffffffffffffffffffffffffffffffffffffff16146132bd576040517f08c379a00000000000000000000000000000000000000000000000000000000081526004016132b4906159b1565b60405180910390fd5b565b60006002600083815260200190815260200160002060009054906101000a900473ffffffffffffffffffffffffffffffffffffffff169050919050565b6000600760009054906101000a900473ffffffffffffffffffffffffffffffffffffffff16905081600760006101000a81548173ffffffffffffffffffffffffffffffffffffffff021916908373ffffffffffffffffffffffffffffffffffffffff1602179055508173ffffffffffffffffffffffffffffffffffffffff168173ffffffffffffffffffffffffffffffffffffffff167f8be0079c531659141344cd1fd0a4f28419497f9722a3daafe3b4186f6b6457e060405160405180910390a35050565b8173ffffffffffffffffffffffffffffffffffffffff168373ffffffffffffffffffffffffffffffffffffffff1603613430576040517f08c379a000000000000000000000000000000000000000000000000000000000815260040161342790615a1d565b60405180910390fd5b80600560008573ffffffffffffffffffffffffffffffffffffffff1673ffffffffffffffffffffffffffffffffffffffff16815260200190815260200160002060008473ffffffffffffffffffffffffffffffffffffffff1673ffffffffffffffffffffffffffffffffffffffff16815260200190815260200160002060006101000a81548160ff0219169083151502179055508173ffffffffffffffffffffffffffffffffffffffff168373ffffffffffffffffffffffffffffffffffffffff167f17307eab39ab6107e8899845ad3d59bd9653f200f220920489ca2b5937696c31836040516135219190614143565b60405180910390a3505050565b6001816000016000828254019250508190555050565b61355e82826040518060200160405280600081525061386a565b5050565b61356b826136fd565b6135aa576040517f08c379a00000000000000000000000000000000000000000000000000000000081526004016135a190615aaf565b60405180910390fd5b806006600084815260200190815260200160002090816135ca9190615383565b505050565b6135da848484612f3a565b6135e6848484846138c5565b613625576040517f08c379a000000000000000000000000000000000000000000000000000000000815260040161361c90615b41565b60405180910390fd5b50505050565b606060405180602001604052806000815250905090565b606061364d82612d99565b600061365761362b565b9050600081511161367757604051806020016040528060008152506136a2565b8061368184613a4c565b604051602001613692929190615491565b6040516020818303038152906040525b915050919050565b6136b381613b1a565b60006006600083815260200190815260200160002080546136d390614afe565b9050146136fa576006600082815260200190815260200160002060006136f99190614032565b5b50565b60008073ffffffffffffffffffffffffffffffffffffffff1661371f836132bf565b73ffffffffffffffffffffffffffffffffffffffff1614159050919050565b600181111561385e57600073ffffffffffffffffffffffffffffffffffffffff168473ffffffffffffffffffffffffffffffffffffffff16146137d25780600360008673ffffffffffffffffffffffffffffffffffffffff1673ffffffffffffffffffffffffffffffffffffffff16815260200190815260200160002060008282546137ca9190615b61565b925050819055505b600073ffffffffffffffffffffffffffffffffffffffff168373ffffffffffffffffffffffffffffffffffffffff161461385d5780600360008573ffffffffffffffffffffffffffffffffffffffff1673ffffffffffffffffffffffffffffffffffffffff16815260200190815260200160002060008282546138559190614fc2565b925050819055505b5b50505050565b50505050565b6138748383613c68565b61388160008484846138c5565b6138c0576040517f08c379a00000000000000000000000000000000000000000000000000000000081526004016138b790615b41565b60405180910390fd5b505050565b60006138e68473ffffffffffffffffffffffffffffffffffffffff16613e85565b15613a3f578373ffffffffffffffffffffffffffffffffffffffff1663150b7a0261390f612de4565b8786866040518563ffffffff1660e01b81526004016139319493929190615bea565b6020604051808303816000875af192505050801561396d57506040513d601f19601f8201168201806040525081019061396a9190615c4b565b60015b6139ef573d806000811461399d576040519150601f19603f3d011682016040523d82523d6000602084013e6139a2565b606091505b5060008151036139e7576040517f08c379a00000000000000000000000000000000000000000000000000000000081526004016139de90615b41565b60405180910390fd5b805181602001fd5b63150b7a0260e01b7bffffffffffffffffffffffffffffffffffffffffffffffffffffffff1916817bffffffffffffffffffffffffffffffffffffffffffffffffffffffff191614915050613a44565b600190505b949350505050565b606060006001613a5b84613ea8565b01905060008167ffffffffffffffff811115613a7a57613a7961465d565b5b6040519080825280601f01601f191660200182016040528015613aac5781602001600182028036833780820191505090505b509050600082602001820190505b600115613b0f578080600190039150507f3031323334353637383961626364656600000000000000000000000000000000600a86061a8153600a8581613b0357613b02615c78565b5b04945060008503613aba575b819350505050919050565b6000613b25826110be565b9050613b3581600084600161373e565b613b3e826110be565b90506004600083815260200190815260200160002060006101000a81549073ffffffffffffffffffffffffffffffffffffffff02191690556001600360008373ffffffffffffffffffffffffffffffffffffffff1673ffffffffffffffffffffffffffffffffffffffff168152602001908152602001600020600082825403925050819055506002600083815260200190815260200160002060006101000a81549073ffffffffffffffffffffffffffffffffffffffff021916905581600073ffffffffffffffffffffffffffffffffffffffff168273ffffffffffffffffffffffffffffffffffffffff167fddf252ad1be2c89b69c2b068fc378daa952ba7f163c4a11628f55a4df523b3ef60405160405180910390a4613c64816000846001613864565b5050565b600073ffffffffffffffffffffffffffffffffffffffff168273ffffffffffffffffffffffffffffffffffffffff1603613cd7576040517f08c379a0000000000000000000000000000000000000000000000000000000008152600401613cce90615cf3565b60405180910390fd5b613ce0816136fd565b15613d20576040517f08c379a0000000000000000000000000000000000000000000000000000000008152600401613d1790615d5f565b60405180910390fd5b613d2e60008383600161373e565b613d37816136fd565b15613d77576040517f08c379a0000000000000000000000000000000000000000000000000000000008152600401613d6e90615d5f565b60405180910390fd5b6001600360008473ffffffffffffffffffffffffffffffffffffffff1673ffffffffffffffffffffffffffffffffffffffff16815260200190815260200160002060008282540192505081905550816002600083815260200190815260200160002060006101000a81548173ffffffffffffffffffffffffffffffffffffffff021916908373ffffffffffffffffffffffffffffffffffffffff160217905550808273ffffffffffffffffffffffffffffffffffffffff16600073ffffffffffffffffffffffffffffffffffffffff167fddf252ad1be2c89b69c2b068fc378daa952ba7f163c4a11628f55a4df523b3ef60405160405180910390a4613e81600083836001613864565b5050565b6000808273ffffffffffffffffffffffffffffffffffffffff163b119050919050565b600080600090507a184f03e93ff9f4daa797ed6e38ed64bf6a1f0100000000000000008310613f06577a184f03e93ff9f4daa797ed6e38ed64bf6a1f0100000000000000008381613efc57613efb615c78565b5b0492506040810190505b6d04ee2d6d415b85acef81000000008310613f43576d04ee2d6d415b85acef81000000008381613f3957613f38615c78565b5b0492506020810190505b662386f26fc100008310613f7257662386f26fc100008381613f6857613f67615c78565b5b0492506010810190505b6305f5e1008310613f9b576305f5e1008381613f9157613f90615c78565b5b0492506008810190505b6127108310613fc0576127108381613fb657613fb5615c78565b5b0492506004810190505b60648310613fe35760648381613fd957613fd8615c78565b5b0492506002810190505b600a8310613ff2576001810190505b80915050919050565b604051806060016040528060008152602001600073ffffffffffffffffffffffffffffffffffffffff168152602001600081525090565b50805461403e90614afe565b6000825580601f10614050575061406f565b601f01602090049060005260206000209081019061406e9190614072565b5b50565b5b8082111561408b576000816000905550600101614073565b5090565b6000604051905090565b600080fd5b600080fd5b60007fffffffff0000000000000000000000000000000000000000000000000000000082169050919050565b6140d8816140a3565b81146140e357600080fd5b50565b6000813590506140f5816140cf565b92915050565b60006020828403121561411157614110614099565b5b600061411f848285016140e6565b91505092915050565b60008115159050919050565b61413d81614128565b82525050565b60006020820190506141586000830184614134565b92915050565b600081519050919050565b600082825260208201905092915050565b60005b8381101561419857808201518184015260208101905061417d565b60008484015250505050565b6000601f19601f8301169050919050565b60006141c08261415e565b6141ca8185614169565b93506141da81856020860161417a565b6141e3816141a4565b840191505092915050565b6000602082019050818103600083015261420881846141b5565b905092915050565b6000819050919050565b61422381614210565b811461422e57600080fd5b50565b6000813590506142408161421a565b92915050565b60006020828403121561425c5761425b614099565b5b600061426a84828501614231565b91505092915050565b600073ffffffffffffffffffffffffffffffffffffffff82169050919050565b600061429e82614273565b9050919050565b6142ae81614293565b82525050565b60006020820190506142c960008301846142a5565b92915050565b6142d881614293565b81146142e357600080fd5b50565b6000813590506142f5816142cf565b92915050565b6000806040838503121561431257614311614099565b5b6000614320858286016142e6565b925050602061433185828601614231565b9150509250929050565b60008060006060848603121561435457614353614099565b5b6000614362868287016142e6565b9350506020614373868287016142e6565b925050604061438486828701614231565b9150509250925092565b600081519050919050565b600082825260208201905092915050565b6000819050602082019050919050565b6143c381614210565b82525050565b6143d281614293565b82525050565b6060820160008201516143ee60008501826143ba565b50602082015161440160208501826143c9565b50604082015161441460408501826143ba565b50505050565b600061442683836143d8565b60608301905092915050565b6000602082019050919050565b600061444a8261438e565b6144548185614399565b935061445f836143aa565b8060005b83811015614490578151614477888261441a565b975061448283614432565b925050600181019050614463565b5085935050505092915050565b600060208201905081810360008301526144b7818461443f565b905092915050565b6000602082840312156144d5576144d4614099565b5b60006144e3848285016142e6565b91505092915050565b6144f581614210565b82525050565b600060208201905061451060008301846144ec565b92915050565b600081519050919050565b600082825260208201905092915050565b6000819050602082019050919050565b600061454e83836143ba565b60208301905092915050565b6000602082019050919050565b600061457282614516565b61457c8185614521565b935061458783614532565b8060005b838110156145b857815161459f8882614542565b97506145aa8361455a565b92505060018101905061458b565b5085935050505092915050565b600060208201905081810360008301526145df8184614567565b905092915050565b6145f081614128565b81146145fb57600080fd5b50565b60008135905061460d816145e7565b92915050565b6000806040838503121561462a57614629614099565b5b6000614638858286016142e6565b9250506020614649858286016145fe565b9150509250929050565b600080fd5b600080fd5b7f4e487b7100000000000000000000000000000000000000000000000000000000600052604160045260246000fd5b614695826141a4565b810181811067ffffffffffffffff821117156146b4576146b361465d565b5b80604052505050565b60006146c761408f565b90506146d3828261468c565b919050565b600067ffffffffffffffff8211156146f3576146f261465d565b5b6146fc826141a4565b9050602081019050919050565b82818337600083830152505050565b600061472b614726846146d8565b6146bd565b90508281526020810184848401111561474757614746614658565b5b614752848285614709565b509392505050565b600082601f83011261476f5761476e614653565b5b813561477f848260208601614718565b91505092915050565b600080600080600060a086880312156147a4576147a3614099565b5b60006147b2888289016142e6565b95505060206147c388828901614231565b945050604086013567ffffffffffffffff8111156147e4576147e361409e565b5b6147f08882890161475a565b935050606086013567ffffffffffffffff8111156148115761481061409e565b5b61481d8882890161475a565b925050608061482e88828901614231565b9150509295509295909350565b600067ffffffffffffffff8211156148565761485561465d565b5b61485f826141a4565b9050602081019050919050565b600061487f61487a8461483b565b6146bd565b90508281526020810184848401111561489b5761489a614658565b5b6148a6848285614709565b509392505050565b600082601f8301126148c3576148c2614653565b5b81356148d384826020860161486c565b91505092915050565b600080600080608085870312156148f6576148f5614099565b5b6000614904878288016142e6565b9450506020614915878288016142e6565b935050604061492687828801614231565b925050606085013567ffffffffffffffff8111156149475761494661409e565b5b614953878288016148ae565b91505092959194509250565b7f4e487b7100000000000000000000000000000000000000000000000000000000600052602160045260246000fd5b6003811061499f5761499e61495f565b5b50565b60008190506149b08261498e565b919050565b60006149c0826149a2565b9050919050565b6149d0816149b5565b82525050565b6000610160820190506149ec600083018e6142a5565b6149f9602083018d6142a5565b614a06604083018c614134565b614a13606083018b614134565b614a20608083018a6142a5565b81810360a0830152614a3281896141b5565b9050614a4160c08301886149c7565b614a4e60e08301876144ec565b614a5c6101008301866144ec565b818103610120830152614a6f81856141b5565b9050614a7f6101408301846144ec565b9c9b505050505050505050505050565b60008060408385031215614aa657614aa5614099565b5b6000614ab4858286016142e6565b9250506020614ac5858286016142e6565b9150509250929050565b7f4e487b7100000000000000000000000000000000000000000000000000000000600052602260045260246000fd5b60006002820490506001821680614b1657607f821691505b602082108103614b2957614b28614acf565b5b50919050565b7f4552433732313a20617070726f76616c20746f2063757272656e74206f776e6560008201527f7200000000000000000000000000000000000000000000000000000000000000602082015250565b6000614b8b602183614169565b9150614b9682614b2f565b604082019050919050565b60006020820190508181036000830152614bba81614b7e565b9050919050565b7f4552433732313a20617070726f76652063616c6c6572206973206e6f7420746f60008201527f6b656e206f776e6572206f7220617070726f76656420666f7220616c6c000000602082015250565b6000614c1d603d83614169565b9150614c2882614bc1565b604082019050919050565b60006020820190508181036000830152614c4c81614c10565b9050919050565b7f4f6e6c792074686520746f6b656e206f776e65722063616e207769746864726160008201527f7700000000000000000000000000000000000000000000000000000000000000602082015250565b6000614caf602183614169565b9150614cba82614c53565b604082019050919050565b60006020820190508181036000830152614cde81614ca2565b9050919050565b7f4e6f2066756e647320746f207769746864726177000000000000000000000000600082015250565b6000614d1b601483614169565b9150614d2682614ce5565b602082019050919050565b60006020820190508181036000830152614d4a81614d0e565b9050919050565b600081905092915050565b50565b6000614d6c600083614d51565b9150614d7782614d5c565b600082019050919050565b6000614d8d82614d5f565b9150819050919050565b7f5472616e73666572206661696c65640000000000000000000000000000000000600082015250565b6000614dcd600f83614169565b9150614dd882614d97565b602082019050919050565b60006020820190508181036000830152614dfc81614dc0565b9050919050565b7f4552433732313a2063616c6c6572206973206e6f7420746f6b656e206f776e6560008201527f72206f7220617070726f76656400000000000000000000000000000000000000602082015250565b6000614e5f602d83614169565b9150614e6a82614e03565b604082019050919050565b60006020820190508181036000830152614e8e81614e52565b9050919050565b7f4f6e6c7920746865206a756467652063616e206465636c61726520747269676760008201527f6572000000000000000000000000000000000000000000000000000000000000602082015250565b6000614ef1602283614169565b9150614efc82614e95565b604082019050919050565b60006020820190508181036000830152614f2081614ee4565b9050919050565b7f416c7265616479206465636c6172656420747269676765726564000000000000600082015250565b6000614f5d601a83614169565b9150614f6882614f27565b602082019050919050565b60006020820190508181036000830152614f8c81614f50565b9050919050565b7f4e487b7100000000000000000000000000000000000000000000000000000000600052601160045260246000fd5b6000614fcd82614210565b9150614fd883614210565b9250828201905080821115614ff057614fef614f93565b5b92915050565b600061500182614210565b91507fffffffffffffffffffffffffffffffffffffffffffffffffffffffffffffffff820361503357615032614f93565b5b600182019050919050565b7f4e487b7100000000000000000000000000000000000000000000000000000000600052603260045260246000fd5b7f4552433732313a20696e76616c696420746f6b656e2049440000000000000000600082015250565b60006150a3601883614169565b91506150ae8261506d565b602082019050919050565b600060208201905081810360008301526150d281615096565b9050919050565b7f4552433732313a2061646472657373207a65726f206973206e6f74206120766160008201527f6c6964206f776e65720000000000000000000000000000000000000000000000602082015250565b6000615135602983614169565b9150615140826150d9565b604082019050919050565b6000602082019050818103600083015261516481615128565b9050919050565b7f546f6b656e20494420646f6573206e6f74206578697374000000000000000000600082015250565b60006151a1601783614169565b91506151ac8261516b565b602082019050919050565b600060208201905081810360008301526151d081615194565b9050919050565b60008190508160005260206000209050919050565b60006020601f8301049050919050565b600082821b905092915050565b6000600883026152397fffffffffffffffffffffffffffffffffffffffffffffffffffffffffffffffff826151fc565b61524386836151fc565b95508019841693508086168417925050509392505050565b6000819050919050565b600061528061527b61527684614210565b61525b565b614210565b9050919050565b6000819050919050565b61529a83615265565b6152ae6152a682615287565b848454615209565b825550505050565b600090565b6152c36152b6565b6152ce818484615291565b505050565b5b818110156152f2576152e76000826152bb565b6001810190506152d4565b5050565b601f82111561533757615308816151d7565b615311846151ec565b81016020851015615320578190505b61533461532c856151ec565b8301826152d3565b50505b505050565b600082821c905092915050565b600061535a6000198460080261533c565b1980831691505092915050565b60006153738383615349565b9150826002028217905092915050565b61538c8261415e565b67ffffffffffffffff8111156153a5576153a461465d565b5b6153af8254614afe565b6153ba8282856152f6565b600060209050601f8311600181146153ed57600084156153db578287015190505b6153e58582615367565b86555061544d565b601f1984166153fb866151d7565b60005b82811015615423578489015182556001820191506020850194506020810190506153fe565b86831015615440578489015161543c601f891682615349565b8355505b6001600288020188555050505b505050505050565b600081905092915050565b600061546b8261415e565b6154758185615455565b935061548581856020860161417a565b80840191505092915050565b600061549d8285615460565b91506154a98284615460565b91508190509392505050565b7f4f6e6c792074686520746f6b656e206f776e65722063616e2064697361626c6560008201527f2074686520747269676765720000000000000000000000000000000000000000602082015250565b6000615511602c83614169565b915061551c826154b5565b604082019050919050565b6000602082019050818103600083015261554081615504565b9050919050565b7f5472696767657220686173206e6f74206265656e206465636c6172656420796560008201527f7400000000000000000000000000000000000000000000000000000000000000602082015250565b60006155a3602183614169565b91506155ae82615547565b604082019050919050565b600060208201905081810360008301526155d281615596565b9050919050565b7f486569722068617320616c7265616479207369676e6564000000000000000000600082015250565b600061560f601783614169565b915061561a826155d9565b602082019050919050565b6000602082019050818103600083015261563e81615602565b9050919050565b7f4f6e6c792074686520686569722063616e207369676e00000000000000000000600082015250565b600061567b601683614169565b915061568682615645565b602082019050919050565b600060208201905081810360008301526156aa8161566e565b9050919050565b7f4a75646765206861736e2774206465636c61726564207472696767657265642060008201527f7965740000000000000000000000000000000000000000000000000000000000602082015250565b600061570d602383614169565b9150615718826156b1565b604082019050919050565b6000602082019050818103600083015261573c81615700565b9050919050565b7f42756666657220706572696f6420686173206e6f742070617373656420796574600082015250565b6000615779602083614169565b915061578482615743565b602082019050919050565b600060208201905081810360008301526157a88161576c565b9050919050565b7f4f776e61626c653a206e6577206f776e657220697320746865207a65726f206160008201527f6464726573730000000000000000000000000000000000000000000000000000602082015250565b600061580b602683614169565b9150615816826157af565b604082019050919050565b6000602082019050818103600083015261583a816157fe565b9050919050565b7f4552433732313a207472616e736665722066726f6d20696e636f72726563742060008201527f6f776e6572000000000000000000000000000000000000000000000000000000602082015250565b600061589d602583614169565b91506158a882615841565b604082019050919050565b600060208201905081810360008301526158cc81615890565b9050919050565b7f4552433732313a207472616e7366657220746f20746865207a65726f2061646460008201527f7265737300000000000000000000000000000000000000000000000000000000602082015250565b600061592f602483614169565b915061593a826158d3565b604082019050919050565b6000602082019050818103600083015261595e81615922565b9050919050565b7f4f776e61626c653a2063616c6c6572206973206e6f7420746865206f776e6572600082015250565b600061599b602083614169565b91506159a682615965565b602082019050919050565b600060208201905081810360008301526159ca8161598e565b9050919050565b7f4552433732313a20617070726f766520746f2063616c6c657200000000000000600082015250565b6000615a07601983614169565b9150615a12826159d1565b602082019050919050565b60006020820190508181036000830152615a36816159fa565b9050919050565b7f45524337323155524953746f726167653a2055524920736574206f66206e6f6e60008201527f6578697374656e7420746f6b656e000000000000000000000000000000000000602082015250565b6000615a99602e83614169565b9150615aa482615a3d565b604082019050919050565b60006020820190508181036000830152615ac881615a8c565b9050919050565b7f4552433732313a207472616e7366657220746f206e6f6e20455243373231526560008201527f63656976657220696d706c656d656e7465720000000000000000000000000000602082015250565b6000615b2b603283614169565b9150615b3682615acf565b604082019050919050565b60006020820190508181036000830152615b5a81615b1e565b9050919050565b6000615b6c82614210565b9150615b7783614210565b9250828203905081811115615b8f57615b8e614f93565b5b92915050565b600081519050919050565b600082825260208201905092915050565b6000615bbc82615b95565b615bc68185615ba0565b9350615bd681856020860161417a565b615bdf816141a4565b840191505092915050565b6000608082019050615bff60008301876142a5565b615c0c60208301866142a5565b615c1960408301856144ec565b8181036060830152615c2b8184615bb1565b905095945050505050565b600081519050615c45816140cf565b92915050565b600060208284031215615c6157615c60614099565b5b6000615c6f84828501615c36565b91505092915050565b7f4e487b7100000000000000000000000000000000000000000000000000000000600052601260045260246000fd5b7f4552433732313a206d696e7420746f20746865207a65726f2061646472657373600082015250565b6000615cdd602083614169565b9150615ce882615ca7565b602082019050919050565b60006020820190508181036000830152615d0c81615cd0565b9050919050565b7f4552433732313a20746f6b656e20616c7265616479206d696e74656400000000600082015250565b6000615d49601c83614169565b9150615d5482615d13565b602082019050919050565b60006020820190508181036000830152615d7881615d3c565b905091905056fea2646970667358221220a53bff8527494cbe3853857d2f29eb491c8f506fcd3358cb370b1b5bb7762f8564736f6c63430008140033",
  "linkReferences": {},
  "deployedLinkReferences": {}
}